:020000022000DC
:10700000000001200171020043A5020017C0020028
:1070100043A5020043A5020043A5020000000000B2
:1070200000000000000000000000000043A5020076
:1070300043A502000000000043A5020043A5020092
:1070400043A5020043A5020043A5020043A5020098
:1070500043A5020043A5020037B00200079A0200D0
:1070600043A5020043A5020043A5020043A5020078
:1070700043A5020043A5020043A5020043A5020068
:1070800043A50200BDAE020043A5020043A50200D5
:1070900043A5020043A50200D7BB020043A502009E
:1070A00043A5020043A5020043A5020043A5020038
:1070B00043A5020043A502000000000000000000FC
:1070C00043A5020043A5020043A5020043A5020018
:1070D00043A5020043A5020043A5020043A5020008
:1070E00043A5020043A5020043A5020000000000E2
:1070F0000000000043A502000000000043A50200BC
:1071000003F020FA0E480F490022814201D004C04A
:10711000FBE70D480D490E4A814202D008CA08C05B
:10712000FAE70C484FF47001026842EA010202607B
:10713000BFF34F8FBFF36F8F00F0D2FD00DE000072
:10714000C8DA0020F0EA002050DA0020C4DA00207B
:10715000F8CA020088ED00E0F0B503AF2DE9000F9A
:107160009FB083464CF24070C0F2020047F2000626
:10717000CDE900B00BF120089BF82B00C4F200060B
:10718000DFE810F006009D049D0410011E01CD00F3
:10719000DBF82400CBF8200003F0CDFA40F2070022
:1071A000C0F2000003F03DFA03F01DFB04F0ACF860
:1071B0004DF69861C2F200010A78002A40F051842D
:1071C00001220A704EF20011CEF20001E8B94DF62C
:1071D000A463EFF310800025C2F2000372B61D70A5
:1071E0004DF6A863C2F2000340F2FC651B68CFF6BF
:1071F000FF55C00703EA05030B604DF6AC63C2F20E
:1072000000031B684B6000D162B608200023C4F263
:107210000000C0F81035C0F8FC300260D0F8FC2047
:10722000002AFBD040F2045C02ABC5F2000CACF5C6
:10723000017203924FF0A0420292002201254FF00A
:10724000FF3453F822000132022AC0F82455C0F856
:107250002045F6D14EF206424023CEF20002C1F89C
:10726000803113700B6046F27C13C4F200030025DA
:107270001D604FF00045C3F8885141F20453C4F239
:1072800001034FF4000502249D6441F20005C0F2A1
:107290000804C4F20105C5F804430124AC602C6065
:1072A00018680028FCD140200323D0724FF400302E
:1072B00008604FF40050CCF8080040F23470C5F27A
:1072C000000003604DF6C840C2F20000D0E84F3F16
:1072D00053B90123BFF35F8FC0E8453F002D7ED037
:1072E000D0E84F5F002DF7D0BFF32F8F0120BFF301
:1072F0005F8F05904CF298304CF2A451C0F202001E
:10730000C0F202010490002006914CF2BC310790BB
:10731000C0F20201029002A802F07EFBFEDE5C4693
:1073200014F8381FA4F10800002900F058834DF626
:107330008821C2F200010A6B41F20451C4F201013A
:107340000B6802F00105D0E9000183EAC553550A34
:1073500013EBC25245F10003121A73EB0102C0F0A5
:1073600040839BF82A0040F23472C5F2000202F119
:10737000D00300F01F01012520283CBF40F2045338
:10738000C5F2000305FA01F11D6840F20453C5F28D
:107390000003294200F08482D832202838BF03F14C
:1073A000080281E25C4614F8300F002849D0032817
:1073B00040F06B834CF240725946C0F202024AE040
:1073C0005D4615F8340F810700F06782032840F00E
:1073D00065834CF240725946C0F202027FE260209F
:1073E000BFF35F8F50700120C6F800050220C6F879
:1073F000F00547F2F450C4F20000002202600320BE
:10740000C6F810054FF40030C6F818054FF6FF70A7
:10741000C0F23F0047F60153C6F808034DF69C60E2
:10742000C2F20000C0F20203036080205C46C1F893
:107430008001086044F8302F0D2044F8048C04F8D3
:10744000060C0020C6F810011020C6F80403DDE980
:1074500000120120F0604DF69060C2F2000003F0CF
:1074600062FED6F81001002800F0148240F20042BB
:1074700000210120C0F20212C6F810112070CDF8D0
:10748000472002228DF838201822CDF83A20012218
:10749000C0F200120991089240F20112C0F20202F9
:1074A000ADF82E10CDF82A204FF48032ADF8281018
:1074B000CDE90C124FF0081105914CF27431C0F275
:1074C00002018DF8460004914FF48071CDE902016C
:1074D0004FF4B061CDE906014EF6E821C2F2000199
:1074E000D1E84F2F6AB902AABFF35F8F02F1040AF5
:1074F00002F12305C1E8430F83B1D1E84F3F002BD0
:10750000F8D0BFF32F8FBFF35F8F03F014F940F271
:107510005500C0F2000003F084F8A1E1BFF35F8FD3
:107520004BF61F319DF84600C0F20201002818BF3B
:1075300002F13F0010DF002840F07282BDF83600F3
:107540000DF15C099DF838100124BDF83A2000289F
:1075500008BF0322ADF8602008BF01218DF85E103E
:10756000202049468DF85C4004F013FBBDF8200054
:10757000012809D1BDF8220017A9ADF85E0023202B
:107580008DF85C4004F005FB9DF8240050B19DF897
:10759000250017A98DF85E0001208DF85C002120E0
:1075A00004F0F7FA9DF8260050B19DF8270017A9BE
:1075B0008DF85E0001208DF85C00222004F0E9FACD
:1075C000BDF83C0001280ED1DDF83E00DDF8421088
:1075D000CDF8621017A9CDF85E0001208DF85C008F
:1075E000242004F0D6FA9DF8280038B19DF829002F
:1075F00017A98DF85C00012004F0CBFA9DF82A0051
:1076000040B129682879179117A98DF860004020AA
:1076100004F0BFFA0298012807D19AE80E00484604
:107620000EC04120494604F0B4FA9DF8300038B14C
:107630009DF8310017A98DF85C00422004F0A9FAEA
:107640009DF8320038B19DF8330017A98DF85C0021
:10765000432004F09EFA9DF8340038B19DF83500BF
:1076600017A98DF85C00A02004F093FA0698012871
:1076700005D1079817A91790A12004F08AFA4DF6B2
:10768000502917A8C2F20009CDF85C9060DF0546CA
:10769000179C03F050F840F25700C0F2000002F0CF
:1076A000C0FF04F1604003F06EFE03F09CF8002D73
:1076B00040F0C381179848450CD203F03CF840F2E3
:1076C0005B00C0F2000002F0ACFF179803F05BFE15
:1076D00003F089F84EF200104FF48001CEF2000062
:1076E0004EF6EA230160C2F20003BDF83C0001241B
:1076F00008990025BDF83E20002808BF17225A80AF
:10770000080417AA4FEA114002A908BF17201880E1
:1077100041F60F008DF80A40ADF808000120ADF8E1
:107720005C50A8DF002840F06C817B20C14607F840
:10773000490C02A840F20118BDF85CA08DF80C506D
:10774000CDF8088004F0B9F9ADF85000000C8DF8C0
:10775000520042F61920ADF8540002A88DF85640A8
:10776000ADF80B508DF80A50ADF8088004F0A5F97B
:1077700000020395013016901220CDE90455ADF8B2
:10778000080016A801300790A7F149001B9014A823
:10779000189015A81790069502A9089517AAADF894
:1077A00068401CAB19945046CDE91C55AADF00284F
:1077B00040F027814DF61831BDF87450C2F2000137
:1077C000BDF8704051E8020FC8464EF6EA29C2F2F1
:1077D000000948B90320BFF35F8F41E8020272B18C
:1077E00051E8022F002AF8D0BFF32F8FBFF35F8F2D
:1077F00002F0A1FF40F20900C0F200002CE00020DE
:10780000BFF35F8F81F83C0048F21532C1F8389021
:10781000C0F20202D8F800004A6103F0C0F94DF648
:107820006031D8F80000C2F2000151E8022F4AB9D5
:107830000322BFF35F8F41E80223B3B151E8023F57
:10784000002BF8D0BFF32F8FBFF35F8F02F073FFD1
:1078500040F20A00C0F2000002F0E3FE02F022F85B
:1078600002F0C1FF02F0EBFEFEDE0022BFF35F8FED
:1078700081F8D42049F2D122C1E93309C0F20202D1
:10788000A1F8AA50A1F8A840D8F800004A6103F076
:1078900086F90AE003202070ADE0DBF830000DE04F
:1078A000D432202838BF1A1D116000215D4605F82A
:1078B000341F284620F80C1D45E9028047F2F45198
:1078C000C4F2000188630120C8630021C6F80411D6
:1078D0000221C6F80413DDE90012306070604DF635
:1078E0009060C2F2000003F01EFCD6F804010028EC
:1078F00000F07E800020C6F80401C6F814010120C3
:10790000B060D6F814010028FBD00020C6F814019E
:10791000BBF92800C10D50FA81F0642100B2000AC1
:10792000484301218BF8341048F2810100F548509A
:1079300080B200FB01F403F0E7FC4DF60832054687
:10794000C2F2000202261378D2E901011670E60D98
:10795000012B567004BF496888470DBB4DF6A461E2
:10796000EFF310800022C2F2000172B60A704DF6E9
:10797000A861C2F2000140F2FC620968CFF6FF5232
:10798000C00701EA02014EF20012CEF200021160BD
:107990004DF6AC61C2F200010968516000D162B6D7
:1079A0004DF6882041F20451C2F20000C4F20101F8
:1079B000006B096800F0010281EAC251420A11EB32
:1079C000C05042F1000110F50042584640F8302FF7
:1079D00041F1000141600021044604F8081FD0E98C
:1079E00000016A4603F05DF901202070052002E0E5
:1079F0000320287004208BF82B001FB0BDE8000F77
:107A0000F0BD03F0ADFE044602F095FE40F2080022
:107A1000C0F2000002F005FE204600F04DF91FE71D
:107A200003F09EFE044602F086FE40F25600C0F2CD
:107A3000000002F0F6FD204624E0284603F090FE08
:107A4000042815D1179C02F076FE4C4532D940F23D
:107A50005900C0F2000002F0E4FD179803F093FC17
:107A6000FEE602F068FE40F21800C0F2000052E5A7
:107A7000054602F060FE40F25A00C0F2000002F03B
:107A8000D0FD284603F0C4FCEAE64CF2A0004CF21C
:107A9000C402C0F20200C0F2020207E04CF2A000F1
:107AA0004CF29002C0F20200C0F20202232102F066
:107AB00027FCFEDE40F25800C0F200002BE5FEDE9F
:107AC00080B56F4682B080464DF6C820C2F20000F5
:107AD0000322014600F14003994200F0DE8051E8A4
:107AE000023F53B901F10803BFF35F8F43E800265B
:107AF0004EB153E8006F002EF8D0BFF32F8F403106
:107B0000BFF35F8FE6E747F25910BFF35F8FC0F214
:107B100002004FF000094861404681F82B90C1F8FF
:107B2000248003F03CF84FF0FF3B08F1080001907F
:107B30004DF68820C2F20000006B019900F00102AE
:107B40000D6841F20451C4F20101096881EAC25191
:107B5000420A11EBC05A42F1000405B3019ED5E977
:107B60000001BAEB000074EB010002D205F1180627
:107B700012E0284602F0D9FFA869306005F108003C
:107B8000BFF35F8F50E8001F21F0040140E80012AE
:107B9000002AF7D1BFF35F8F3568002DDFD1BFF327
:107BA0005F8F58E800AF48E800900028F9D1BFF394
:107BB0005F8FBAF1000F32D05546DAF80CA005F10C
:107BC0000804C5E900BBBFF35F8F54E8000F20F045
:107BD000020144E80012002AF7D1C007BFF35F8F0B
:107BE000E7D0696928468847D5E9000181EA0B0199
:107BF00080EA0B000843DCD0BFF35F8F54E8000F2E
:107C000040F0040144E80012002AF7D14007BFF316
:107C10005F8FCED401990868A8610D60C9E701980B
:107C20004FF0FF324FF0FF33016869B301984FF016
:107C3000FF324FF0FF33D1E90065AB42344638BF25
:107C40001446B24228BF3246AB4218BF224685EAEC
:107C50000B0486EA0B0628BF2B46264316B101F11A
:107C600018000EE08E6908310660BFF35F8F51E89F
:107C7000006F26F0040641E80065002DF7D1BFF340
:107C80005F8F01680029D6D198F8100003F080F8C2
:107C900000283FF44DAF20BF4AE702F04CFD40F210
:107CA0001700C0F2000002F0BCFC01F0FBFD02F086
:107CB0009AFD02F0C4FCFEDED0B502AF82B00446ED
:107CC00040F24200C0F20000022127F80A0CA7F19E
:107CD0000A0002F024FE204603F09AFB02B0D0BD59
:107CE00080B56F4600F001F8FEDE80B56F4686B0C5
:107CF00001AC204602F08AFF2046FFF7E1FEFEDEDF
:107D0000D0B502AF47F20014C4F20004206940B1BC
:107D10001020C4F808024DF69060C2F2000003F093
:107D20005CFA606840B10220C4F808024DF6906029
:107D3000C2F2000003F051FA206850B10120C4F8EB
:107D400008024DF69060C2F20000BDE8D04003F09A
:107D500044BAD0BDF0B503AF2DE9000B0C46054683
:107D600003F0D2FAD5E900198046AE6800202860F9
:107D700039B1012933D12068814513D061680A687F
:107D80001AE0D4E9000109688847D5E900430246B2
:107D9000AE680120012CC5E90002A9601FD1F1687D
:107DA00018461AE06368D6F800C01A68944502BF06
:107DB000746859688C423AD090470246D5E9004031
:107DC000D5F808C00123012CC5E90032A96004BF21
:107DD000DCF80C1088477168484688470120B8F1E4
:107DE000000F21D14DF6A462EFF310810023C2F2FF
:107DF000000272B613704DF6A862C2F2000240F2A1
:107E0000FC631268CFF6FF53C90702EA03024EF281
:107E10000013CEF200031A604DF6AC62C2F200020B
:107E200012685A6000D162B6BDE8000BF0BD9968D7
:107E3000B2688A4201D06246BEE7D968F2688A42D7
:107E40006246B9D101202860C9E7B0B502AF054646
:107E500003F05AFA0446D5E90020A9680223012A52
:107E60002B6004BF496888470CBB4DF6A461EFF353
:107E700010800022C2F2000172B60A704DF6A861AD
:107E8000C2F2000140F2FC620968CFF6FF52C0075F
:107E900001EA02014EF20012CEF2000211604DF62C
:107EA000AC61C2F200010968516000D162B6B0BD98
:107EB00000F000B8F0B503AF2DE9000F85B00668FB
:107EC0000D463168022940F0C8800121D6E9018BB6
:107ED00031602988112907D1D0E9021000220A60F7
:107EE000FFF7B3FF0320AAE04468A88803F0EAFC88
:107EF000C00700F0BE8028888A46502829D0512823
:107F00000CD0522840F09780A88803F0DBFC0D4687
:107F1000C10747D1000640F08B808CE0A879022889
:107F200040F0B280A97B481EC0B2052840F2B48060
:107F300002F001FC40F24700C0F2000002F071FBC9
:107F4000A87B03F036FA02F04EFC504600F0E5F84C
:107F500074E0287B0138062831D2288A00286AD0AC
:107F60002068E9884088884265D1AC7C02F0E3FB58
:107F700040F20E00C0F2000002F053FB40F202009B
:107F80000221C0F20000ADF8100004A802F0C7FC06
:107F900004F0010007F81D0CA7F11D00012102F0FB
:107FA000BEFC17E0284607F8215C03F0C8FCA0B12E
:107FB0004A6BA7F12101904717F8215C38E002F0E5
:107FC000BAFB40F24600C0F2000002F02AFB287B18
:107FD00003F0EFF902F007FC2DE0E8B2142834D2E8
:107FE0004DF6BC617422C2F2000110FB0210B0F821
:107FF000601001290CD1B0F862000021002200239A
:10800000B1DFA8B103F0ACFB04464FF0010901E079
:108010004FF0000902F08FFB40F24500C0F2000073
:1080200002F0FFFA4846214600F0BDF802F0DBFB03
:10803000284603F0EAFB504603F0E7FB022086E8FF
:10804000010905B0BDE8000FF0BD4CF66012142127
:10805000C0F2020201F000FDFEDE4CF278204CF28C
:10806000A022C0F20200C0F20202282102F048F968
:10807000FEDE02F060FB40F24400C0F2000002F0BD
:10808000D0FA03F071F919E001280FD1E9895246BD
:10809000288900F018F8FEDE28892A8A6B8ACDE943
:1080A000003A05F1140300F026F8FEDE02F043FB6F
:1080B00040F24800C0F2000002F0B3FA02F093FB75
:1080C00002F0BDFAFEDE80B56F4682B0ADF8040066
:1080D00068468DF80620009100F08DF802F02BFB29
:1080E00040F24000C0F2000002F09BFA02F07BFB7D
:1080F00002F0A5FAFEDE80B56F46F86800F079F868
:1081000002F019FB40F24100C0F2000002F089FACF
:1081100002F069FB02F093FAFEDEB0B502AF84B064
:10812000044602F008FB40F23600C0F2000002F004
:1081300078FA0220022503F03CF902F054FB2046B5
:1081400003F0A6FB80B2012815D100208DF8005065
:10815000CDE902008DF806004FF48570ADF80400FB
:1081600088B26946B0DFC8B103F0FAFA0546204686
:1081700003F04BFB04E0204603F047FB43F202050B
:1081800002F0D9FA40F23700C0F2000002F049FADA
:10819000284603F03DF902F026FB02E0204603F0FA
:1081A00034FB04B0B0BDB0B502AF82B0054640F2BA
:1081B0004A00C0F200000C46ADF8040001A80221FC
:1081C00002F0ADFB5DB10120012107F8090CA7F118
:1081D000090002F0A4FB204603F01AF907E0002092
:1081E000012107F80A0CA7F10A0002F098FB02B07F
:1081F000B0BDFFF792BFB0B502AF84B0044602F045
:108200009AFA40F23600C0F2000002F00AFA0120A9
:10821000012503F0CEF802F0E6FAA479204603F037
:1082200037FB80B2012815D100208DF80050CDE930
:1082300002008DF806004FF48570ADF8040088B296
:108240006946B0DFC8B103F08BFA0546204603F05B
:10825000DCFA04E0204603F0D8FA43F2020502F00B
:108260006AFA40F23700C0F2000002F0DAF928465C
:1082700003F0CEF802F0B7FA02E0204603F0C5FAA8
:1082800004B0B0BDB0B502AF82B0054640F24900BF
:10829000C0F200000C46ADF8040001A8022102F073
:1082A0003EFB5DB10120012107F8090CA7F109008F
:1082B00002F035FB204603F0ABF807E00020012177
:1082C00007F80A0CA7F10A0002F029FB02B0B0BDC2
:1082D000D0B502AF017800220270C80708BFD0BD38
:1082E0004DF6C020C2F20000007874DF88B103F0C0
:1082F00037FA044602F01FFA40F23E00C0F20000D6
:1083000002F08FF9204603F083F8BDE8D04002F078
:108310006ABAD0BDF0B503AF2DE9000FC1B090F837
:108320003C100646203049B196F8341059B196F801
:108330002C1069B196F8241071B90CE0B16B0022D1
:1083400086F834203163316B002286F82C20B1622C
:108350000021C0E9001100604DF6B0604CF240729F
:10836000C2F20000C0F20202314602F0DCFE08ACAC
:108370000020089020464BDF80B9089D281F082860
:1083800028BF022DF6D3032D04D0022D40F0B58472
:10839000032000E0002002F088FFEBE7079603F0DF
:1083A000DFF9052840F0B58439A80DF1CC0802307A
:1083B000039008F110000DF1A809029009F11000D6
:1083C000019008F102000DF1240B05900BF1120051
:1083D00004900BF108000690A7F17A06802527F893
:1083E0007A5C3146584661DF002840F04884BDF889
:1083F0002400411E0F29F2D3A0F11001202927D219
:108400001629ECD8DFE811F01800D3038200A5008C
:1084100010011B0117003F0117006E01A501B001FB
:108420001700BC011700C1011700D6011700EB01AE
:10843000F00117000F02D2E79DF8330003F0DEFAD7
:10844000002800F011824EF60C00C2F200000FE28C
:10845000A0F1300120290BD2BDF82800142880F0AB
:1084600025844EF6180100EB4000C2F2000147E0FF
:10847000A0F15001202920D2BDF82840552836D13E
:108480004EF6EA20C2F200000588BDF82A00A84294
:1084900038BF0546172D98BF172529462046B5DF5A
:1084A000002800F0C58103F05BF9044602F043F9AF
:1084B00040F24B00C0F20000EEE2A0F17001202972
:1084C000BFF48DAF75283FF48AAF742800F0328472
:1084D000772800F03884BDF82800142880F08A84BA
:1084E0004EF6F81100EB4000C2F2000108E0142C37
:1084F00080F0EB834EF6081104EB4400C2F2000159
:1085000001EB8000594603F0FFF868E7BDF828004A
:10851000142880F0D5834EF2CC72C2F2000212F819
:108520001010012940F0E08302EB4000407814284D
:1085300080F0C1834DF6BC644FF0740C00FB0CF36B
:10854000C2F20004DDE90B1210FB0C40E150426066
:1085500045E7BDF82800142880F0B2834EF2CC72B3
:108560000125C2F2000212F81010012940F0BC836C
:1085700002EB40004078132800F29D83CB46002296
:1085800000210B1D022901F10101DBB205FA03F301
:1085900022EA030638BF42EA030603293246F0D135
:1085A0004DF6BC617422C2F2000110FB0219D9F829
:1085B0000880B8F1000F00F0E381D9F80CA0404624
:1085C000DAF80C108847C0B24CF27C3180F004001D
:1085D000C0F202014FF0010C085C00210A1D20FAD4
:1085E00001F3B1F1200458BF0023D2B2DB070CFA2B
:1085F00002F226EA020501F1010118BF46EA02056E
:1086000003292E46EAD1BDF8280003F05BF9C20722
:1086100040F0B881A7F17A06000602D0084603F0C0
:10862000F4F80DF1CC08CDE1BDF8280003F04AF9CB
:10863000C00740F0288100258DF8A85018E2BDF849
:108640002800142880F03C834EF2CC72C2F2000263
:1086500012F81010012940F0478302EB40004078E7
:10866000132800F228834DF6BC617422C2F2000187
:1086700010FB0211886800283FF4B1AEC9688A690E
:1086800006999047ABE6BDF82800142880F01883BF
:108690004EF2CC72C2F2000212F81010012940F022
:1086A000238302EB40014978132900F219834DF628
:1086B000BC627423C2F2000211FB03218C68002CFF
:1086C00000F0B681CD689DF82C10022900F0AC8135
:1086D000012940F0AD8103F0F5F8C00700F0A88152
:1086E000072002E29DF82C0000287FF478AE9DF868
:1086F0002D0010F004003FF472AEBDF8280003F026
:10870000E1F8C2072CD0C8B2132807F8551C00F2B4
:10871000D2824DF6BC627423C2F2000210FB032227
:108720009068002800F037829DF83130D2F80CA014
:108730009B0700F1DF810299D2F86A60D2F86730B6
:10874000C1F803600B600021CDE93311CDE935118B
:10875000F4E1BDF8280003F0B5F8C20740F0B4809A
:10876000000640F018823AE69DF82C40012C07D014
:10877000022C40F012834EF2F470C2F20000C1E607
:108780004EF60000C2F20000BCE6DDE90B12CDE9B6
:108790002A124946BDF8280075DF00283FF41FAEB5
:1087A00002F0DEFF044601F0C6FF40F22D00C0F2E9
:1087B00000004FE1BDF82C10ADF8A8104946BDF8F7
:1087C00028008FDF00283FF40AAE02F0C9FF0446FC
:1087D00001F0B1FF40F22F00C0F200003AE1BDF815
:1087E000280003F0C4F8FAE5BDF82800142880F04A
:1087F00067824EF2CC72C2F2000212F81010012908
:1088000040F0728202EB40004078142880F05382DE
:108810004DF6BC627423C2F200020B9910FB0320D8
:1088200080F86E10DBE54EF60C00C2F2000069E63F
:10883000142C80F04F824EF2CC71C2F2000111F87C
:108840001400012840F0508201EB440040781428C5
:1088500080F031824DF6BC617422C2F2000110FB3F
:108860000210A0F864501EE14EF2F470C2F2000053
:10887000594602F049FF00287FF4B1ADBDF8280049
:10888000132176DFABE508460C468DF8F01003F0B7
:1088900056F8002800F0E680049E0246CD6A05994D
:1088A00033687668BDF834004E60A7F17A060B6035
:1088B00011463CAAADF8CC0048464346A8479DF86F
:1088C000A8509DF8F040D0E0C8B213288DF8A81049
:1088D00000F2F1819DF82C504FF0000C4FF0000E8B
:1088E0000026F4B225FA04F4E40711D0C6F12003FF
:1088F0000122B6F1200422FA03F358BF02FA04F36E
:108900004EEA030E02FA06F358BF00234CEA030CAA
:108910000136042EE5D1A7F17A0600224FF0000EB1
:108920000024231DDBB225FA03F3DB0713D0C4F1C7
:1089300020064FF0010AB4F120032AFA06F658BFC8
:108940000AFA03F60AFA04F34EEA060E58BF0023A9
:10895000A7F17A061A430134042CE2D15FFA8CF3B2
:10896000022B00F0A280012B4FF0800500F0A480C4
:10897000002B40F0A580120640F0A2800022A0E06B
:1089800035461BE0DAF8142040468DF8A810594609
:108990005C469047DAF81020064640465946904714
:1089A00080469DF8A80002F030FF05F07E00B8F187
:1089B000000F00EB060518BF65F07F050DF1CC0830
:1089C000A7F17A0641F207010022C0F20331BDF897
:1089D0002800CDF8CD1009F148012F9109F12C01A3
:1089E0008DF8CC505B46CDE92D2109F110012A917B
:1089F0000021CDE93022D946CDE92B2242467FDF46
:108A000078B102F0ADFE044601F095FE40F2300070
:108A1000C0F2000001F005FE204602F0F9FC01F072
:108A2000E2FE0DF1240B3EE002F04CFFC0075BD1EB
:108A3000BDF8280000210022802580DF00283FF4B7
:108A4000CEAC02F08DFE044601F075FE40F231001E
:108A5000C0F2000001F0E5FD204602F0D9FC01F073
:108A6000C2FEBCE400258DF8A850204602F0CDFEE1
:108A7000E9B2BDF82800002918BF09F10101002260
:108A8000002386DF78B102F06BFE044601F053FE4E
:108A900040F23200C0F2000001F0C3FD204602F0B7
:108AA000B7FC01F0A0FE802599E4D2B2012A4FF074
:108AB000800575D1052204E0531EDBB2042B00D3E0
:108AC00001224DF6BC637424C2F2000310FB043390
:108AD000986883F86F2000285DD0D9684B6A4946B2
:108AE00098479DF8A81056E0082055F82020204609
:108AF0009047D8E702F1480ED446DA46C846CB463E
:108B0000F146B9E87A00A8E87A00B9F8001099F8B7
:108B10000230D946A8F80010D34688F802300DF18B
:108B2000CC089EE87800E246414678C1019B029E4F
:108B30001968D3F80330C6F803303160039D02F1A1
:108B4000100CD2E90913CE46568C6B603CAB296001
:108B5000ADF8E4601A46BCE8720072C29CF80010DE
:108B6000C4461170BCE87600AEE876009CF80210AE
:108B7000BCF80020DAF82860AEF8002039AA8EF898
:108B80000210A7F15501CDF80090B04717F8551C19
:108B9000A7F17A068025084602F037FEFFF71FBCD2
:108BA000022A4FF0070208BF062289D189E7BDF8E3
:108BB0002800142880F084804EF2CC72C2F20002A9
:108BC00012F81010012940F08F8002EB400040782D
:108BD000132870D84DF6BC617423C2F2000110FB5B
:108BE0000316B6F86000002800F0C280B6F86240B4
:108BF000142C6FD212F81400012840F0C080C24635
:108C0000D6F80880B8F1000F14D02046F56802F0BD
:108C100059FEC00700F0BA802A6B40468DF8A810B4
:108C2000494690479DF8A80002F0EFFD4EF2CC7245
:108C3000C2F200020020594602F8140004EB44047A
:108C4000A6F860004EF61800C2F2000000EB8400A7
:108C500002F05AFD4EF608105946C2F2000000EB31
:108C6000840002F051FD4EF6F8105946C2F20000A1
:108C700000EB840002F048FDD046FFF7ADBB02F0E8
:108C80006FFD052804D0044643F20100844248D118
:108C90000799032081F83C0081F8340081F82C000A
:108CA00081F8240041B0BDE8000FF0BD4CF6D412AD
:108CB000C0F20202A2E04CF66012C0F202029DE095
:108CC0004CF67012C0F2020298E04CF63822C0F264
:108CD000020203E04CF67012C0F2020220468DE060
:108CE0004CF660120846E8E701F025FD40F22C0042
:108CF000C0F2000001F095FC77E001F01CFD40F2AD
:108D00002000C0F2000001F08CFC284602F03BFB82
:108D10006BE0044601F00FFD40F22100C0F20000BC
:108D200020E00C2C18D101F006FD40F22200C0F228
:108D30000000DFE70B9C01F0FEFCC4BB40F24C00DE
:108D4000C0F200004DE00B98B0BB01F0F4FC40F223
:108D50004E00C0F2000044E001F0EDFC40F22300C0
:108D6000C0F2000001F05DFC204602F051FB3CE047
:108D700001F0E1FC40F22600C0F20000BAE701F089
:108D8000DAFC40F22700C0F20000B3E701F0D3FCA8
:108D900040F22800C0F20000ACE701F0CCFC40F249
:108DA0002E00C0F2000001F03CFC2046AEE740F28D
:108DB0004D00C0F2000014E0BDF82800142819D2BC
:108DC0004EF6F81100EB4000C2F2000101EB80000A
:108DD00009A902F099FC01F0AEFC40F24F00C0F28C
:108DE000000001F01EFC02F0BFFA01F0FCFC01F0F3
:108DF00026FCFEDE4CF69422C0F20202142100F0A2
:108E00002BFEFEDEF0B503AF2DE9000F8FB090F81A
:108E10008E204CF24071C0F20201CDE90601A2B1F0
:108E2000032A3BD10346002153F8804F5E68196046
:108E30003CBB4CF2E4204CF26432C0F20200C0F2BF
:108E40000202182101F039FBFEDE90F88C10034677
:108E500003F88D1F0021A3F15506A3F16D0453F80B
:108E6000052C43F8096C03F8111C03F8591C43F84E
:108E7000193C43F8152C43F8612C43F85D3C43F84A
:108E80000D1DCDE90130207D039610B1D4F8089076
:108E900013E0D4E90301C4E9000108E04CF2D0106A
:108EA0004CF2F832C0F20200C0F20202F4E14DF6D8
:108EB0000839C2F20009C4F8089002F025FA804689
:108EC00099F8000099F801500021D9E9016A4FF0A2
:108ED000010B89F8001040B1012840D10698059493
:108EE000864218D007990A6821E0DDE90601096881
:108EF000884799F800600246D9E9010389F800B073
:108F00004FF0000B012EC9E9012128D1D96888470B
:108F10004FF0000B23E0079BDAF800C01A68944575
:108F200002BFDAF8044059688C4200F09E80049534
:108F30009047024699F80040D9E901030125012C28
:108F400089F80050C9E9012104BFD9688847DAF8D7
:108F50000410304688474FF0000BDDE90454B8F1A7
:108F6000000F21D14DF6A461EFF310800022C2F270
:108F7000000172B60A704DF6A861C2F2000140F21B
:108F8000FC620968CFF6FF52C00701EA02014EF207
:108F90000012CEF2000211604DF6AC61C2F2000187
:108FA0000968516000D162B6BBF1000F64D0D4E90A
:108FB000001007F8375C0078142880F038814DF6EF
:108FC000BC627423C2F20002098810FB0320B0F8CF
:108FD0006020012A16D1A7F137030C93A7F13603BD
:108FE00001220B930023ADF8241009A9B0F8620008
:108FF00027F8362CADF828308DF82620AEDF08B3E0
:1090000020680188A7F137000A90012009AA099079
:109010004FF6FF70ACDF00283FF449AF02F0A0FB31
:10902000044601F088FB40F21100C0F2000001F09C
:10903000F8FA01202146FFF725F901F0D4FB01F0F1
:10904000FEFAFEDE01F077FB40F21000C0F20000F5
:1090500001F0E7FA17F8370C01218DF8240009A870
:1090600001F05DFC01F0BFFB21E79968DAF8082008
:109070008A4213D062465AE7039E0320207596F871
:109080004400C8B1032840F0E080B14619F8380F19
:10909000E0B3032840F0F880306B52E0D968DAF88A
:1090A0000C208A4262467FF442AF059C01204FF0BB
:1090B000000B89F8000052E7F06B0078142880F06C
:1090C000B6804DF6BC617422C2F2000110FB0210A2
:1090D000B0F86010012953D1B0F86250142D80F01F
:1090E000AE80A046346C02F0ECFA4EF6081105EBA7
:1090F0004500C2F20001B14601EB80010020B461DD
:1091000044467163F66109F8380F00E0716B002284
:10911000304606F1180540F8202F06F11003F162E1
:10912000C6E90015C6E902300B68002B40F09680B6
:109130004CF224220223C0F20202C1E900368A6006
:10914000306306A9FEF706FE18B1032089F8000077
:1091500012E0F06A0021D6E90458F16200B1016022
:10916000306A012803D1D6E90901C968884701207E
:10917000032D89F8000004D1032586F8445003E04C
:109180000025012086F84400032D02D101980460D7
:1091900003E0022D2DD0042D04D10299032081F883
:1091A0008E0040E001F0C7FA40F20F00C0F200006C
:1091B00001F037FA40F243000221C0F20000ADF89E
:1091C000240009A801F0ABFB55B1012001218DF865
:1091D000240009A801F0A3FB404602F019F906E0BB
:1091E000002001218DF8240009A801F098FB01F06E
:1091F000FAFA029C04F1380000F052F894F88D005D
:1092000002F003FB012084F88E0004F10800BFF394
:109210005F8F50E8001F21F0010140E80012002A92
:10922000F7D1BFF35F8F0FB0BDE8000FF0BD4CF674
:109230006012C0F20202142100F00EFCFEDE4CF6B9
:1092400038222846C0F20202F5E74CF2D0104CF268
:109250000422C0F20200C0F202021DE001204CF222
:1092600068210C904CF26020C0F20200C0F20201B2
:109270000B904CF2A450C0F202000E920D9009A87F
:10928000099200F0C9FBFEDE4CF2D0104CF2142221
:10929000C0F20200C0F20202232101F031F8FEDE2A
:1092A00090F84410032904BF90F83810032900D027
:1092B0007047C16A0022C26201B10A60016A0129D5
:1092C00018BF7047D0E90910C26808461047D4D4C7
:1092D000F0B503AF2DE9000F99B080464CF2407015
:1092E000C0F2020008F12001CDE9068098F8D40010
:1092F0000091D8B1C2461AF8A40FAAF1740400284C
:1093000000F0A880032873D1454615F8850F002882
:1093100051D0032875D1C34605951BF8640F00286A
:109320004DD0032876D1D8F85800DCE1D8E93323B2
:109330000126C8E92B234DF65832B8F8AA10C2F21C
:109340000002B8F8A800131DD3E84F5FD5BBC3E8EF
:10935000456F002DF8D1BFF35F8FC8F8B42051805E
:10936000108001F0E8F940F20B00C0F2000001F0BB
:1093700058F901F038FA4CF2F2320421C0F202023C
:109380004CF2E136C8E9312140F20011C0F201018E
:109390000020C8F82A104FF4C8711123C0F2020649
:1093A00088F82800A8F82400C8E92F63C8F820101E
:1093B00088F8B8003AE0D8F86CB004945AE0D8F8CD
:1093C0005C1075E101204CF2A451BFF32F8F0B907C
:1093D0004CF2FC00C0F20201C0F202000C914CF20F
:1093E00060110A900020C0F202010D90089037E24F
:1093F0004CF2D0104CF2F412C0F20200C0F20202A1
:1094000010E04CF2D0104CF2C012C0F20200C0F2D8
:10941000020207E04CF2D0104CF2B022C0F202007F
:10942000C0F20202232100F06BFFFEDED8F8B0008C
:1094300008F19001C8F88800C2460098C8F88C006E
:1094400008F1B80090E87C0000207CC10AF8A40F65
:10945000AAF17404D8E9220B08F17001C8E91A0BCB
:1094600008F19000049490E87C0000207CC14546FF
:1094700005F8850F0120444604F8840FA4F1100C70
:10948000CDF80CA014F8143C14F813AC9CE80610AA
:1094900054F8040C0595DFE803F0033A1317240091
:1094A0000B9008460126CDE9092C02910020089175
:1094B0004FF0000A8DF838600125CDF804C03CE07B
:1094C0008DF831A0022525E000200625CDE90920F0
:1094D0000A4602910126089100218DF83850019129
:1094E0002BE0CDE908C00725B8F872008DF83720C9
:1094F0000022CDF833100021ADF831000120019198
:1095000061468DF838500A92CDF808C014E0032562
:109510008DF831A00D9100214FF0000AB8F87200CB
:1095200001910021ADF8320001208DF83850CDF8BE
:1095300028A0CDF820A0029100268DF830000FA8B9
:109540004FF0000918218DF83A908DF839A002F0FB
:1095500070FC08A8BBF8061011309BF80D209BF892
:109560000C30002E18BF002010909BF80B00012932
:10957000BBF804608DF851008DF83C509BF8095001
:109580008DF85230DBF800009BF8083011904FF056
:1095900001008DF8502098BF0146002E08BF3146CB
:1095A000ADF84810012D98BF0546002B08BF1D4699
:1095B0000FA98DF84A501731029D5FFA89F2B9F16F
:1095C000200600FA02F32AFA09F258BF0022D20755
:1095D0004FEAD90209F101098E5C14BF334326EA30
:1095E0000303B9F1040F8B54E7D1DDF80CA0002080
:1095F000019B2DB109984FF6FE71884200F215814A
:1096000000212BB10B994FF6FE72914200F20D81B1
:109610004DF6C02EADF86010C2F2000EADF8580045
:10962000159515A917930FAA704640F23B0572DFF6
:10963000C0F2000598B99BF90A2001209EF800109D
:1096400040F23C0577DFC0F2000540B99EF800000B
:10965000012173DF40F23D05C0F20005C8B102F000
:109660007FF8814601F067F8284600F0DAFF4846A7
:1096700001F0CEFE01F0B7F82046FEF729FE05986E
:1096800001240470049800F0EFF802268AF80040E4
:109690007EE002F016F80020C3464EF60C010BF8EF
:1096A000640FC2F20001049C4BF8081C4BF8044CF8
:1096B0000022404640F8482FA0F1080600F11803A8
:1096C000C16040E9061640E904300B68002B40F009
:1096D000B5804CF2C0220223C0F20202C1E900347C
:1096E0008A60C8F8580006A9FEF734FB002840F04D
:1096F0008E80D8F854000021D8E91069C8F85410B9
:1097000000B10160D8F84800012803D1D8E913015D
:10971000C96888470125042E8BF800507AD00020B4
:109720008DF8200008A8FEF7D3FD059805702046A7
:1097300000F09AF8032E8AF8005029D14DF63841EE
:10974000D8F8B420C2F2000151E8020F50B903204A
:10975000BFF35F8F41E80203002B45D051E8023F81
:10976000002BF7D0BFF32F8F4846BFF35F8F02F077
:109770004CF800F0E0FF40F20C00C0F2000000F0F6
:1097800050FF00F08FF801F02EF800F058FFFEDED9
:1097900000F0D1FF40F20D00C0F2000000F041FFE8
:1097A00040F239000221C0F20000ADF8200008A804
:1097B00001F0B5F81EB1012E09D1012000E0002012
:1097C0008DF8200008A8012101F0A9F809E0022085
:1097D00001218DF8200008A801F0A1F8484601F009
:1097E00017FE01F000F821E6BFF35F8FC1F8882073
:1097F000D8F8AC0048F605620023C0F2020281F8F6
:109800008E3081F88C904A6101F0C9F90EE6032090
:109810008BF80000032088F8D40088F8A40088F8AA
:10982000850019B0BDE8000FF0BD00F084FF40F2E4
:109830003A00C0F2000000F0F4FEA4E701204CF270
:10984000D4210B904CF26020C0F20200C0F2020161
:109850000A904CF2A450C0F202000D920C900892B3
:1098600008A800F0D9F8FEDED0B502AF044690F8A3
:109870005500032818BFD0BD94F8340003280BD13D
:10988000606A0021616200B10160A069012803D112
:10989000D4E90701C968884704F15400BDE8D04005
:1098A000FEF716BD80B56F4682B040F21600022169
:1098B000C0F2000027F8020CB81E01F030F802B028
:1098C00080BD704700F000B8F0B503AF2DE9000F80
:1098D00083B0D0E9009A04460120C9F800000D8841
:1098E000102D10D000211B2D33D0262D31D000F0AB
:1098F00022FF40F23F00C0F2000000F092FE284636
:1099000001F041FD7AE0C87B0E46B1F804B002F0E8
:1099100075F8D6F80B308046D6E904C1B268002647
:10992000CDF807304DF6BC6301920022C2F200036D
:109930009D1895F8660018B9B5F86000012816D191
:1099400074320136B2F5116FF2D11321584676DF29
:109950000121F2B20323CAE90012E068C9F800301D
:1099600003B0BDE8000FBDE8F040FEF76EBA05F1A8
:1099700008006960582143F802C002F05AFA012039
:10998000019985F866001723A5F86000002085F886
:10999000700040F21B10BBF1140FDDF80720C5F872
:1099A0006710A5F86430A5F862B085F87180A5F855
:1099B0006E00C5F86A2010D24EF2CC70C2F20000E0
:1099C00010F81B1091B900EB4B000121467001709B
:1099D000584601F0CCFF0321BBE74CF67012584605
:1099E000C0F20202142100F037F8FEDE00F0A3FE00
:1099F00040F22B00C0F2000000F013FE00F0F3FE76
:109A000000F01DFEFEDE4DF69C60C2F20000016813
:109A1000406808470068FEE780B56F4686B0CDE92C
:109A200003014CF28840C0F20200012202904CF285
:109A3000A450C0F202008DF81420019001A802F099
:109A400044F9FEDE70474EF2AB704FF60C41C4F69F
:109A5000BE50CCF2A811704780B56F468CB0CDE9EE
:109A60000001022005904CF23C41079008A80690A6
:109A70000020C0F20201029049F699200491C0F240
:109A800002006946CDE9090111460B9001A8089032
:109A900002A8FFF7C1FFFEDEF0B503AF2DE9000F0E
:109AA0008FB0056842F210708B4685424CF29840A8
:109AB000C0F2020042D341F2597E4EF2FF06A7F1F6
:109AC000430A00224FF69C7CCDF2B71E4DF6F008FB
:109AD00041F27B49C0F2F556CDF810B0A5FB0E144B
:109AE0000AEB020B043AB5424FEA543101FB085429
:109AF0000D46A3B24FEA930303FB09F34FEA534326
:109B000003FB0C4430F81330ABF82330A4B230F828
:109B10001440ABF82540E1D8DDF810B027320D46EF
:109B2000632D0ED829460A291ED330F81100A2F160
:109B30000209A7F1430121F809001DE02722632D46
:109B4000F0D9A9B241F27B438908023A59436FF038
:109B50006303A7F14306490C11FB03539BB230F892
:109B60001330B3520A29E0D2A2F1010901F1300009
:109B7000A7F1430101F80900DBF818004CF2A453E7
:109B8000A7F14301DBF8082001EB0906C0F202034C
:109B9000410710F0010A4FF02B0803EAE174C9F104
:109BA000270308BF4FF48818C2B1DBF80C5003EB51
:109BB0000A018D4212D90007CDE9033625D49BF85E
:109BC0002000691AA246032808BF0120820746D058
:109BD000012841D100200290084641E099462346E1
:109BE000DBE9004542462946204600F07EF808B1F0
:109BF000012405E0EB68204631464A469847044672
:109C000020460FB0BDE8000FF0BDDBE9002623467B
:109C1000DBF81C0001249BF82010019030200091FB
:109C20003146CBF81C001046029242468BF8204089
:109C300000F05BF80028E3D109EB0500029DA0EBE2
:109C40000A00A0F12604013C3AD0326928463021AE
:109C500090470028F7D0CBE7480801314908029126
:109C6000DBE90094461CDBF81C50013E06D022695B
:109C70004846294690470028F7D0B9E7B5F5881F30
:109C8000B6D0484621464246534600F02EF80028FA
:109C9000AED1E3684846DDE9032198470028A7D103
:109CA000029E4FF00008464519D0226948462946D1
:109CB000904708F101080028F5D0A8F101000FE055
:109CC000F3682846DDE903219847002890D10098E1
:109CD00000248BF820000198CBF81C0090E7304658
:109CE0000024B04238BF01248AE7F0B503AF4DF835
:109CF00004BD1C460E460546B2F5881F08D03369E0
:109D000028461146984718B101205DF804BBF0BD04
:109D100044B1F3682846214600225DF804BBBDE843
:109D2000F040184700205DF804BBF0BD80B56F46D9
:109D300000F001F8FEDE80B56F468CB00121CDE960
:109D4000000102204CF294510590079008A8C0F23F
:109D50000201069000200491029049F6992001A981
:109D6000C0F202000B90CDE9090168464CF29C61FB
:109D7000089002A8C0F20201FFF74EFEFEDEF0B529
:109D800003AF2DE9000F83B08846D0F808C0016901
:109D9000BCF1010F18BF012909D1012976D1416910
:109DA00008EB020E4FF0000B43464C1C0CE0D0E9D0
:109DB0000010E1E046EA89158B1CABEB0101B5F51B
:109DC000881F01EB030B61D0013C194628D0714577
:109DD0005CD00B4613F9016BB6F1FF3FF5B2ECDC3A
:109DE0004E7805F01F09DF2D06F03F06E2D98B788B
:109DF000F02D03F03F0343EA86160DD3CB7809F02C
:109E0000070503F03F0343EA861343EA8545B5F5AA
:109E1000881F3BD00B1DD0E746EA0935CB1CCCE7A9
:109E2000714533D091F90030B3F1FF3F04DCDBB270
:109E3000E02B28BFF02B15D2BBF1000F09D09345C2
:109E400006D218F90B1011F1400F02DA002101E0DF
:109E5000FCD1414600290CBF93468846BCF1000F57
:109E600018D186E04E7803F007038D78C97806F0A4
:109E70003F0605F03F0501F03F01AD0145EA06361A
:109E8000314441EA8341B1F5881FD5D19346BCF1F5
:109E9000000F6ED0D0F80CE0BBF1100F0CD2BBF16C
:109EA000000F62D0ABF101010BF0030C03296CD25F
:109EB0004FF0000A41468BE008F103015A4621F0B9
:109EC0000301A1EB0806B3450ED3042E0CD8A2EB78
:109ED000060BBBF1040F07D30BF0030A41450292B6
:109EE00040F0D380002217E122F00306A8F104031A
:109EF000A6F1040C4FF0000A934613F9045F93F99E
:109F0000034015F1410FC8BF0AF1010A93F901504E
:109F100093F9021015F1410FC8BF0AF1010A11F1BE
:109F2000410FC8BF0AF1010A14F1410FC8BF0AF17D
:109F3000010A043EE1D11BF0030667D093F9041037
:109F400011F1410FC8BF0AF1010A012E5ED008EBE2
:109F50000C0191F9053013F1410FC8BF0AF1010A54
:109F6000022E53D091F906104BE04FF0000AD6456F
:109F70004ED801685A464068C3680846414603B057
:109F8000BDE8000FBDE8F04018472BF003064FF086
:109F9000000A414691F9022091F9035011F9044B4E
:109FA00011F9033C14F1410FC8BF0AF1010A13F182
:109FB000410FC8BF0AF1010A12F1410FC8BF0AF1EF
:109FC000010A15F1410FC8BF0AF1010A043EE1D1AF
:109FD000BCF1000F1AD091F9002012F1410FC8BF57
:109FE0000AF1010ABCF1010F10D091F9012012F120
:109FF000410FC8BF0AF1010ABCF1020F06D091F966
:10A00000021011F1410FC8BF0AF1010AD645B0D9BB
:10A0100090F82020D11E18BF11468A07AEEB0A0225
:10A02000DA4605D0012905D14FF00009114605E0B7
:10A03000914603E0510801324FEA5209D0E900B5D8
:10A040004E1CC469013E06D02A69584621469047F5
:10A050000028F7D008E0B4F5881F05D0EB68584613
:10A0600041465246984720B1012003B0BDE8000F99
:10A07000F0BD0026B14512D02A69584621469047C6
:10A0800001360028F6D0711E0AE06FEA080211447A
:10A0900006F00305032908D20022414625E049467F
:10A0A0000020494538BF0120DFE7009526F0030571
:10A0B0000022414691F9023091F9034011F904CB95
:10A0C00011F9039C1CF1410FC8BF013219F1410F76
:10A0D000C8BF013213F1410FC8BF013214F1410F63
:10A0E000C8BF0132043DE5D1009DADB191F900300A
:10A0F00013F1410FC8BF0132012D0DD091F901308C
:10A1000013F1410FC8BF0132022D05D091F90210A1
:10A1100011F1410FC8BF013208EB0605CDF80080F0
:10A120004FEA9B080021BAF1000FCDF804E01AD0E5
:10A130002BF00303EC1894F9003013F1410FC8BF62
:10A140000121BAF1010F0ED094F9013013F1410F42
:10A15000C8BF0131BAF1020F05D094F9023013F1F2
:10A16000410FC8BF013101EB020A0FE03FFA8CF149
:10A170003FFA9CF21144A8EB0E0809EB8E051EF085
:10A18000030401EB01410AEB114A40D1B8F1000F81
:10A190003AD0B8F1C00FC64628BF4FF0C00E1EF02F
:10A1A000FC01A9464FF0000C05EB810BDED04C46BC
:10A1B000002C1FBFD4E90053D4E90262E943C90966
:10A1C0001FBF41EA951121F0FE316144DD431FBFFD
:10A1D000ED0945EA931323F0FE3319441FBFF343FF
:10A1E000DB0943EA961323F0FE331FBF1944D34320
:10A1F000DB0943EA92121FBF22F0FE3202EB010C90
:10A2000010345C45D4D1B1E7DDF8008072E0B9F1DB
:10A21000000F0AD0611E21F04042511C032A01F0B8
:10A22000030C07D24FF0000E31E04FF0000EDDF8C6
:10A23000008056E021F003014FF0000EBBE86C00F7
:10A2400004396FEA02044FEAD41444EA92126FEA26
:10A25000030422F0FE324FEAD41444EA931372440A
:10A2600023F0FE331A446FEA05034FEAD31343EA9F
:10A27000951323F0FE331A446FEA06034FEAD31313
:10A2800043EA961323F0FE3303EB020ED6D1DDF83A
:10A290000080BCF1000F24D0DBF80010BCF1010FEE
:10A2A0006FEA01024FEAD21242EA911121F0FE3127
:10A2B0008E4416D0DBF80410BCF1020F6FEA0102E5
:10A2C0004FEAD21242EA911121F0FE318E4408D0B9
:10A2D000DBF80810CA43D20942EA911121F0FE319D
:10A2E0008E443FFA8EF13FFA9EF2114401EB014198
:10A2F0000AEB114ADDE901EBD6453FF689AE38E6B7
:10A3000080B56F4688B0012394464CF2A452039363
:10A3100006ABCDE9060102930023C0F202026846B3
:10A320006146059304920093FFF776FBFEDE0B4631
:10A33000D0E900121846FFF722BDF0B503AF2DE9B2
:10A34000000F8BB093460322DBF800A08DF8282085
:10A35000202209920022BAF1000F08920692CDE95C
:10A360000312029068D0DBF80400002800F08B8014
:10A37000DBF8089041010138002420F078404FF0CC
:10A38000000801300191009009EB0800426842B1D9
:10A39000DDE9020359F80810DB689847002840F00F
:10A3A00085800AEB8800DBF81010D0E90525C3682A
:10A3B000067F08920AEB040209958DF8286012695D
:10A3C00073B1012B08D101EBC20249F61526C0F288
:10A3D00002065368B34201D0002302E012681268FB
:10A3E0000123CDE90432D0E9012072B1012A08D15C
:10A3F00001EBC00049F61523C0F2020342689A42FD
:10A4000001D0002202E00068006801225AF80430FE
:10A41000079051F8330001EBC3014B6802A9069283
:10A420009847002842D10198203408F10808A0423A
:10A43000AAD1DDF8009028E0DBF8140018B3DBF8AF
:10A440001010C4000138DBF8082020F060400E1D19
:10A45000151D00F101090DF108082A6832B1DDE986
:10A46000020355F8041CDB689847F8B956F8040C49
:10A47000414632689047C8B9083C06F1080605F124
:10A480000805EAD101E04FF00009DBF80C00814536
:10A490000ED2DBF808204E46DDE90201CB6852F807
:10A4A000391002EBC9025268984708B1012000E058
:10A4B00000200BB0BDE8000FF0BD80B56F4600F086
:10A4C00001F8FEDE80B56F466DE90201684611466F
:10A4D00000F001F8FEDE80B56F4688B001224CF234
:10A4E000BC530392C0F20203059206AA0492002212
:10A4F00000924AF22F32C0F202020293CDE9060224
:10A500006846FFF789FAFEDEF0B503AF2DE9000BD0
:10A5100086B0D0F800E06A46D1E900C113469EE853
:10A52000710383E871036046FFF707FF06B0BDE8DB
:10A53000000BF0BD00680B46D0E900121846FFF78B
:10A540001EBCFEE77047D0E90020C36810461847DC
:10A5500080B56F460846114600F0E1F9002080BD45
:10A5600080B56F4682B000208029019003D201227D
:10A570008DF8041036E0B1F5006F0BD202220846C8
:10A5800062F39F108DF80500C02040EA91108DF80D
:10A59000040027E002200A4660F39F12B1F5803FD5
:10A5A0000DD28DF806208A0960F39F12E0208DF805
:10A5B000052040EA11308DF80400032212E08DF8E6
:10A5C00007208A0960F39F128DF806200A0B60F3BA
:10A5D0009F12880C1E218DF8052061F3DF008DF895
:10A5E0000400042201A8114600F099F9002002B0ED
:10A5F00080BDF0B503AF4DF804BD88B0006802AA75
:10A60000019091E8785010464CF2A451C0F202013A
:10A6100080E8785001A8FFF790FE08B05DF804BB11
:10A62000F0BD80B56F4682B027F8020CB81E02213B
:10A6300000F075F900F010FE02B080BD704780B5E3
:10A640006F464CF2C5504CF22C62C0F20200C0F2D0
:10A6500002020E21FFF754FEFEDEF0B503AF2DE936
:10A66000000B3AB3044688460069E168BFF35F8F88
:10A67000884202D9CB43C51806E0002812BFC1F5B5
:10A68000806540F2FF30451AA5B1AA4238BF154691
:10A690006E18B6F5806F0FD96068C1F580690844FF
:10A6A00041464A4601F073FB606808EB0901A5EBDF
:10A6B000090205E000250AE060682A460844414690
:10A6C00001F065FBBFF35F8F6FF39F26E6602846BE
:10A6D000BDE8000BF0BDF0B503AF2DE9000B8846D7
:10A6E000C1681446B2F5806F28BF4FF480640E191C
:10A6F0000546B6F5806FBFF35F8F0DD96868C1F569
:10A700008069084441464A4601F041FB686808EB0D
:10A710000901A4EB090203E06868224608444146A7
:10A7200001F035FBBFF35F8F6FF39F26EE6020468D
:10A73000BDE8000BF0BDF0B503AF4DF804BD86B029
:10A7400000F0E2FD4DF6C942C2F20002117899BB59
:10A7500001214DF6CA4311704DF6CD42C2F20002FE
:10A76000C2F2000316781870FEB94DF6502500208D
:10A770001170C2F200058DF800004AF2D766E86A4F
:10A780004AF25B61C0F202066C4600F00300C0F2C0
:10A790000201022808BF0E4605F1180021460122D9
:10A7A000B0470028F8D0012803D106B05DF804BBFB
:10A7B000F0BDFFF7BBFAFEDE01204CF2A45103907E
:10A7C0004CF2CC60C0F20200C0F202010290002004
:10A7D00004914CF230710590C0F20201009068467D
:10A7E000FFF71AF9FEDEF0B503AF2DE9000F81B0D7
:10A7F0004DF6CB494DF65026C2F200094AF25B6A8B
:10A8000099F800004AF2D7654DF6CC48C2F200062E
:10A81000C0F2020AC0F20205C2F20008A0B3072883
:10A820001BD24FF0FF3298F8001002FA00F0A7F1A7
:10A830001D0B08432C4600F07F0007F81D0CF06A42
:10A8400000F00300022808BF544606F118005946DC
:10A850000122A0470028F8D014E07930A7F11E0BA0
:10A8600040F0800007F81E0CF06A2C4600F0030050
:10A87000022808BF544606F1180059460122A04795
:10A880000028F8D0012847D10020A7F11F0407F8BD
:10A890001F0CF06A00F00300022808BF554606F1BD
:10A8A000180021460122A8470028F8D0012833D1FA
:10A8B0004DF6C9410020C2F2000189F8000088F875
:10A8C000000008704DF6CA41C2F200010978F9B9DA
:10A8D0004DF6A462EFF31081C2F2000272B610705E
:10A8E0004DF6A860C2F2000040F2FC620068CFF6AC
:10A8F000FF5210404EF20012CEF2000210604DF6F0
:10A90000AC60C2F2000000685060C80700D162B6B7
:10A9100001B0BDE8000FF0BDFFF708FAFEDEF0B5AC
:10A9200003AF2DE9000F85B0002900F0EF8000EBA8
:10A93000010902464DF6CB404DF6502AC2F2000006
:10A94000A7F1210B90F80080A7F11E04C2F2000AC3
:10A95000CDF8049012F8010B5FFA88F1072924D290
:10A9600000286BD007F8210C4AF2D765DAF82C00E2
:10A970001646C0F2020500F0030002284AF25B60AE
:10A98000C0F2020008BF05460AF11800594601222C
:10A99000A8470028F8D0012840F0BC804DF6CC40F4
:10A9A0003246C2F20000007852E0002802927BD0CA
:10A9B00007F81E0C4AF2D769DAF82C00C0F2020937
:10A9C00000F0030002284AF25B60C0F2020008BFF8
:10A9D00081460AF11805214601222846C847002869
:10A9E000F7D0012840F096804DF6CB4008F10108E1
:10A9F000DDE90192C2F2000080F800805FFA88F081
:10AA0000862840F08080FF204AF2D76607F81D0CA8
:10AA1000A7F11D08DAF82C00C0F2020600F00300CE
:10AA200002284AF25B60C0F2020008BF06462846D0
:10AA300041460122B0470028F9D053E04DF6CC46FC
:10AA40000123C2F2000603FA01F1307808433070A6
:10AA50004DF6CB4108F10108C2F2000181F80080F7
:10AA60005FFA88F107294ED101064CD08DF810000D
:10AA70004AF2D765DAF82C0004AE9046C0F202051F
:10AA800000F0030002284AF25B60C0F2020008BF37
:10AA900005460AF1180031460122A8470028F8D0DF
:10AAA000012837D1424620E008F179004AF2D76503
:10AAB00040F0800007F81F0CDAF82C00A7F11F0601
:10AAC000C0F2020500F0030002284AF25B60C0F207
:10AAD000020008BF05460AF1180031460122A847C6
:10AAE0000028F8D0012815D1029A4DF6CC404FF03D
:10AAF0000008C2F2000080F800804DF6CB40C2F2A0
:10AB0000000080F800804A457FF424AF05B0BDE81E
:10AB1000000FF0BDFFF70AF9FEDE4CF24071C0F203
:10AB20000201704700F001B87047B0B502AF0546AA
:10AB300000F0EAFB0446A86800F0030101290AD1ED
:10AB400040F00200A86029690868E8600D6010B94B
:10AB50004868C96888470CBB4DF6A461EFF31080C4
:10AB60000022C2F2000172B60A704DF6A861C2F26C
:10AB7000000140F2FC620968CFF6FF52C00701EA0B
:10AB800002014EF20012CEF2000211604DF6AC61ED
:10AB9000C2F200010968516000D162B6B0BDF0B5E3
:10ABA00003AF4DF804BD0E460546086100F0ACFB4E
:10ABB00004462868F0602E6010B96868E968884724
:10ABC0000CBB4DF6A461EFF310800022C2F200012D
:10ABD00072B60A704DF6A861C2F2000140F2FC6242
:10ABE0000968CFF6FF52C00701EA02014EF20012D7
:10ABF000CEF2000211604DF6AC61C2F200010968AC
:10AC0000516000D162B65DF804BBF0BDF0B503AF92
:10AC10004DF8048D04464DF68820C2F2000090F8ED
:10AC20003450BFF35F8FEBB2022B27D800F1340210
:10AC3000D2E84F1F994207D16B1CBFF35F8FC2E868
:10AC4000463F1EB9012202E0BFF32F8F00220D46BE
:10AC5000002ABFF35F8FE6D04AF69B482846C0F231
:10AC6000020800224146002600F05BF82574C4E982
:10AC70000066C4E902685DF8048BF0BDFFF75BFD78
:10AC800040F21500C0F20000FFF7CBFC00F06CFBB7
:10AC9000FFF7A9FDFFF7D3FCFEDE80B56F4640BF8E
:10ACA00080BDD0B502AFD2F804E04AF61B33C0F243
:10ACB0000203DEF800C09C450BD1DEF804304AF6F2
:10ACC000253CC0F2020C634504BFDEF80830634542
:10ACD0000CD0FFF730FD40F21400C0F20000FFF787
:10ACE000A0FCFFF780FDFFF7AAFCFEDEDEF80CC03B
:10ACF0004AF62933C0F202039C45EAD1D2F800C0DB
:10AD00008E460446DCE900328A423CBF96461C4629
:10AD1000834238BF18468A4218BF2046CCE9000E4D
:10AD2000D0BDF0B503AF4DF804BD0D464DF68821FA
:10AD3000C0B2C2F20001144601EB001600F0E4FAC2
:10AD4000C6E9025408BB4DF6A461EFF3108000225F
:10AD5000C2F2000172B60A704DF6A861C2F200019B
:10AD600040F2FC620968CFF6FF52C00701EA020117
:10AD70004EF20012CEF2000211604DF6AC61C2F24A
:10AD800000010968516000D162B65DF804BBF0BDF6
:10AD9000F0B503AF2DE9000B4DF68825C6B29846F5
:10ADA00091463401C2F2000500F0AEFA05EB06133D
:10ADB00045F8049041F2043CC3F80480C4F2010C4D
:10ADC000296BDCF8002201F0010582EAC5524D0A28
:10ADD00012EBC15145F10002B1EB090572EB080518
:10ADE00029D2042E61D2CB1C42F10005A8451C4695
:10ADF00088BF4C46994588BF4B46A84518BF234697
:10AE00000CEB860523F07F43C5F83C3206F11003B6
:10AE100003F01F03012606FA03F3B9EB010668EB02
:10AE20000205B6F5400675F1000634BFCCF80030D7
:10AE3000CCF804300BE01036012506F01F0605FAA9
:10AE400006F6CCF804604FF0FF36C3E9006608BB95
:10AE50004DF6A463EFF310800026C2F2000372B631
:10AE60001E704DF6A863C2F2000340F2FC661B6838
:10AE7000CFF6FF56C00703EA06034EF20016CEF2E5
:10AE8000000633604DF6AC63C2F200031B687360CA
:10AE900000D162B6B1EB09014FF0000072EB08017E
:10AEA00038BF0120BDE8000BF0BD4CF2B472304653
:10AEB000C0F202020421FEF7CFFDFEDEF0B503AFC3
:10AEC0002DE9000F81B041F20415C4F20105286894
:10AED000012803D10020286000F056F8A86C012852
:10AEE00003D10020A86400F04FF84DF688204FF001
:10AEF0000008C2F2000000F108064FF0FF3B4FF0DF
:10AF0000000905F13C0050F82910012932D140F820
:10AF100029804FF4803000FA09FA00F0F5F9C5F8FD
:10AF200004A20446D6E9001046E902BB88470CBBE0
:10AF30004DF6A461EFF3108040F2FC62C2F2000112
:10AF400072B681F800804DF6A861C2F20001CFF61A
:10AF5000FF520968C00701EA02014EF20012CEF268
:10AF6000000211604DF6AC61C2F200010968516047
:10AF700000D162B609F101091036B9F1030FC0D151
:10AF800001B0BDE8000FF0BDF0B503AF4DF804BD52
:10AF900000F0BAF94DF68822C2F2000252E80C1F06
:10AFA000013142E80C13002BF8D14A0A41F2043473
:10AFB0004FF4400313EBC15C4DF6882142F10002CF
:10AFC0000023C2F200014FF4803EC4F20104D1E933
:10AFD00000561031B5EB0C0576EB02053CBF0EFABE
:10AFE00003F525600133032BF1D108BB4DF6A461B5
:10AFF000EFF310800022C2F2000172B60A704DF623
:10B00000A861C2F2000140F2FC620968CFF6FF526B
:10B01000C00701EA02014EF20012CEF200021160F6
:10B020004DF6AC61C2F200010968516000D162B610
:10B030005DF804BBF0BDF0B503AF2DE9000F83B0A0
:10B040004DF6D04446F200150026C2F20004C4F2C8
:10B0500000054FF0010855F8260030B108FA06F057
:10B06000C5F80802204600F0B8F801360834082E6A
:10B07000F1D1E86F002843D040F200304FF00009D2
:10B08000C5F87C904DF61055C5F200004FF0010B4D
:10B0900002904FF0A040C2F20005019001A850F8C4
:10B0A0002940D4F82085B8F1000F22D098FAA8F0F2
:10B0B0004FEA4916B0FA80F0C2461F2824D804EBA4
:10B0C0008001D1F8002722F44032C1F8002781190D
:10B0D00030291FD20BFA00F02AEA000A05EBC10062
:10B0E00000F07BF89AFAAAF0BAF1000FB0FA80F0FB
:10B0F000E3D15FEAC9704FF00109C4F82085CDD0D3
:10B1000003B0BDE8000FF0BD4CF624022021C0F2D0
:10B11000020205E04CF634020846C0F20202302179
:10B12000FEF79AFCFEDEF0B503AF2DE900071546E9
:10B130008A46064600F0E8F8D6E9009480460020EA
:10B1400070606CB1D14502BF28682168814207D187
:10B1500068686168814202BFA868A168814236D0F0
:10B160002968504688470246D6E90003C6E900210F
:10B170000BB1D968884714B1E16848468847B8F1EF
:10B18000000F21D14DF6A461EFF310800022C2F22E
:10B19000000172B60A704DF6A861C2F2000140F2D9
:10B1A000FC620968CFF6FF52C00701EA02014EF2C5
:10B1B0000012CEF2000211604DF6AC61C2F2000145
:10B1C0000968516000D162B6BDE80007F0BDE868CB
:10B1D000E1688142C4D17460D1E7F0B503AF4DF8A6
:10B1E000048D054600F090F8D5E900648046002003
:10B1F00068604CB1A16830468847D5E90001C5E9CF
:10B20000006409B1C9688847B8F1000F21D14DF633
:10B21000A461EFF310800022C2F2000172B60A703E
:10B220004DF6A861C2F2000140F2FC620968CFF657
:10B23000FF52C00701EA02014EF20012CEF20002F4
:10B2400011604DF6AC61C2F200010968516000D195
:10B2500062B65DF8048BF0BD80B56F4682B04DF6E6
:10B26000882041F20451C2F20000C4F20101006BD7
:10B27000096800F0010281EAC25143F6095211EB5C
:10B28000C0514FEA502040F10000A1FB021300FB27
:10B290000230490A41EAC051400A00910821019058
:10B2A0006846FFF73CFB02B080BD80B56F4600F0FA
:10B2B0002BF84DF6B861C2F200014FF001020A709E
:10B2C00008BB4DF6A461EFF310800022C2F200012A
:10B2D00072B60A704DF6A861C2F2000140F2FC623B
:10B2E0000968CFF6FF52C00701EA02014EF20012D0
:10B2F000CEF2000211604DF6AC61C2F200010968A5
:10B30000516000D162B680BD80B56F464DF6A46134
:10B31000C2F200010878BFF35F8F08BBEFF3108221
:10B3200001234DF6A86C72B60B704EF28013C2F278
:10B33000000CCEF200031968CCF800104DF6AC6C8E
:10B34000C2F2000C5968CCF8001040F2FC61CFF654
:10B35000FF5119604FF0FF315960D10700D162B63B
:10B36000002818BF012080BD80B56F4682B040F232
:10B3700001000221C0F2000027F8020CB81EFFF7FE
:10B38000CEFA02B080BDD0B502AF82B0044640F222
:10B390000500C0F20000022127F80E0CA7F10E00F4
:10B3A000FFF7BDFA01A804210194FFF7B8FA02B033
:10B3B000D0BDD0B502AF82B0044640F20300C0F267
:10B3C00000000221ADF8040001A8FFF7A8FAA7F1D8
:10B3D0000900012107F8094CFFF7A1FA02B0D0BD1E
:10B3E000D0B502AF82B0044640F20400C0F20000C3
:10B3F0000221ADF8040001A8FFF791FAA7F10A00B5
:10B40000022127F80A4CFFF78AFA02B0D0BDD4D443
:10B41000D0B502AF82B0044640F22400C0F2000072
:10B420000221ADF8040001A8FFF779FAB4F5005F36
:10B4300015DBB4F5405F37DDB4F5485F42DBB4F5AA
:10B440004C5F80F24C80A4F54850DFE800F0035FC9
:10B4500064696E734CF6B420C0F2020027E1B4F5C3
:10B46000805F80F24780611C4CF64500C0F202000C
:10B47000DFE811F015001D0165006A006F0074001F
:10B4800079007E00830088008D00920097009C0068
:10B49000A100A600AB00B000B500BA00BF004CF69A
:10B4A0004400C0F2020002E1A4F50050DFE800F021
:10B4B00005A6ABB0B5BABFC4C9CE4CF6C420C0F225
:10B4C0000200F4E043F20100201ADFE800F003C4B8
:10B4D000C9CED3D84CF6BA20C0F20200E7E000F0A3
:10B4E000D380B4F5505F40F0D4804CF6AD20C0F26C
:10B4F0000200DCE000F0D28041F20100844240F022
:10B50000D2804CF6C620C0F20200D0E04CF6B32048
:10B51000C0F20200CBE04CF6B220C0F20200C6E05E
:10B520004CF6B120C0F20200C1E04CF6B020C0F2EF
:10B530000200BCE04CF6AF20C0F20200B7E04CF6CF
:10B54000AB20C0F20200B2E04CF6AA20C0F202002A
:10B55000ADE04CF6A920C0F20200A8E04CF6A8200D
:10B56000C0F20200A3E04CF6A720C0F202009EE069
:10B570004CF6A620C0F2020099E04CF6A520C0F2DD
:10B58000020094E04CF6A420C0F202008FE04CF6DA
:10B59000D220C0F202008AE04CF6D120C0F20200B4
:10B5A00085E04CF6D020C0F2020080E04CF6CF20BF
:10B5B000C0F202007BE04CF6CE20C0F2020076E042
:10B5C0004CF6CD20C0F2020071E04CF6CC20C0F267
:10B5D00002006CE04CF6CB20C0F2020067E04CF6B3
:10B5E000CA20C0F2020062E04CF6C920C0F202009C
:10B5F0005DE04CF6C820C0F2020058E04CF6C320D3
:10B60000C0F2020053E04CF6C220C0F202004EE04D
:10B610004CF6C120C0F2020049E04CF6C020C0F256
:10B62000020044E04CF6BF20C0F202003FE04CF6BE
:10B63000BE20C0F202003AE04CF6BD20C0F202008B
:10B6400035E04CF6BC20C0F2020030E04CF6BB20E6
:10B65000C0F202002BE04CF6B920C0F2020026E056
:10B660004CF6B820C0F2020021E04CF6B720C0F240
:10B6700002001CE04CF6B620C0F2020017E04CF6C7
:10B68000B520C0F2020012E04CF6AE20C0F202007B
:10B690000DE04CF6AC20C0F2020008E04CF6C720EA
:10B6A000C0F2020003E04CF6C520C0F202000078B0
:10B6B000012107F8090CA7F10900FFF730F902B0E2
:10B6C000D0BD80B56F4686B04EF60450CEF2000075
:10B6D000007808B906B080BD01204CF2A451039057
:10B6E0004CF66C00C0F20200C0F202010290002091
:10B6F00004914CF6C4010590C0F202010090684626
:10B70000FEF78AF9FEDED4D4B0B502AF86B00C469F
:10B710000546FFF7D6FF29680020DFE801F0080A98
:10B720000208D5E901010A6921469047012006B0C7
:10B73000B0BD01204CF2A45103904CF6F800C0F2C9
:10B740000200C0F202010290002004914CF60011A8
:10B750000590C0F2020100906846FEF75DF9FEDE3A
:10B7600001464FF0FF30B1F5005F13DBB1F5405FEC
:10B7700022DDB1F5485F2ADBB1F54C5F80F23980FC
:10B78000A1F54852052A88BF7047DFE802F0363637
:10B7900036363636B1F5805F23DA4A1E122A2DD8A6
:10B7A000DFE802F02B2B2B2B2B2B2B2B2B2B2B2BDC
:10B7B0002B2B2B2B2B2B2B00A1F50052092A1DD84C
:10B7C000DFE802F01B1B1B1B1B1B1B1B1B1B43F27D
:10B7D00001028A1A052A11D8DFE802F00F0F0F0FB5
:10B7E0000F0F1CBF41F20102914206D041F202024A
:10B7F00007E018BFB1F5505F01D10846704743F22A
:10B800000142914208BF0846704780B56F46C0B2FA
:10B81000132821D84DF6BC617422C2F2000110FB3E
:10B82000021E9EF86600F8B101388EF86600000628
:10B8300018BF80BDBEF86000012804BF9EF87000EC
:10B84000002800D080BDBEF86200132176DFC0B9A9
:10B8500001208EF8700080BD4CF660121421C0F2F9
:10B860000202FEF7F9F8FEDEFEF765FF40F229005E
:10B87000C0F20000FEF7D5FEFEF7B5FFFEF7DFFED3
:10B88000FEDEFEF758FF40F22500C0F20000F1E7AF
:10B8900080B56F46C0B213289FBF4DF6BC61C2F29F
:10B8A0000001742210FB02119EBFB1F86000B1F8D4
:10B8B000621080BD4CF660121421C0F20202FEF745
:10B8C000CBF8FEDE80B56F4681B2142929D24EF244
:10B8D000CC72C2F2000212F8110008B302EB41016F
:10B8E0004978132922D84DF6BC627423C2F20002B3
:10B8F00011FB032C1CF8663F0133DAB29A4204BFF5
:10B900008CF8003080BDFEF716FF40F22A00C0F22E
:10B910000000FEF786FEFEF766FFFEF790FEFEDEF5
:10B9200080BD4CF67012C0F2020203E04CF66012C9
:10B93000C0F2020208461421FEF78EF8FEDE80B542
:10B940006F46C0B213289FBF4DF6BC61C2F2000122
:10B95000742210FB02119CBFD1E9020180BD4CF69C
:10B9600060121421C0F20202FEF776F8FEDED0B5B6
:10B9700002AF82B0002180B2ADF804106A46009197
:10B98000002190DFC0B3FFF7EBFE0446FEF7D3FEC5
:10B9900040F23300C0F20000FEF743FE2046FFF7FE
:10B9A00037FDFEF720FFBDF80200BDF80010084388
:10B9B00011D0FEF7C0FE40F23400C0F20000FEF7E6
:10B9C00030FEBDF80000FFF70BFDBDF80200FFF7E9
:10B9D00007FDFEF708FFBDF8040068B1FEF7ABFEF7
:10B9E00040F23500C0F20000FEF71BFEBDF8040077
:10B9F000FFF7F6FCFEF7F7FE02B0D0BDD0B502AF00
:10BA00000446C0B2012813D0022804BF0020D0BDD4
:10BA1000FEF791FE40F23800C0F20000FEF701FE92
:10BA20002046FFF7C6FCFEF7DEFEFEF708FEFEDE50
:10BA30000120D0BDF0B503AF4DF804BD4CF6EB21AD
:10BA400040B2C0F202014FF0010C11F800E04CF6D8
:10BA5000E421C0F20201085C0021002320FA03F572
:10BA6000DAB2B3F1200658BF00250CFA02F421EA3D
:10BA70000402ED0703F1010318BF44EA0102042B9D
:10BA80001146EBD100234FF0010C181D2EFA03F4E0
:10BA9000B3F1200558BF0024C0B2E4070CFA00F14E
:10BAA00022EA010003F1010318BF41EA0200042B5E
:10BAB0000246EAD15DF804BBF0BDF0B503AF2DE955
:10BAC000000B01784578867890F8038090F8049010
:10BAD0000846FFF7AFFF04462846FFF7ABFF0121FA
:10BAE0000122D3B2012A01FA03F526EA050302F185
:10BAF000010208BF45EA0603032A1E46F1D14FEAB8
:10BB0000091123F0180241EAC801C0B21143E2B2A0
:10BB100042EA002040EA0140BDE8000BF0BD80B5DC
:10BB20006F460C4601280DD0064641F2010015462D
:10BB3000864211D1FEF7FFFDD5B940F25100C0F2A7
:10BB4000000005E0FEF7F7FD40F25000C0F20000F3
:10BB5000FEF767FD204615E0FEF7EDFD40F25300CD
:10BB6000C0F20000FEF75DFD3046FFF70CFC05E07B
:10BB700040F25200C0F20000FEF753FD2046FFF7EE
:10BB800002FC2846FFF7FFFBFEF72DFEFEF757FDF0
:10BB9000FEDEB0B502AF4DF650220446C2F20002FE
:10BBA00069DF18B1FFF7DCFD042800D1B0BD054600
:10BBB000FEF7C1FD40F25400C0F20000FEF731FD77
:10BBC0002046FFF7E0FB2846FFF722FCFEF70BFEBE
:10BBD000FEF735FDFEDE4DF6B060C2F20000FFF765
:10BBE000FCBAF0B503AF4DF8048D8EB0D1E9004535
:10BBF0004CF26841EB68C0F20201D0F800800C22E0
:10BC00002046984708B101265AE0D8F8080028B124
:10BC100001904AF20950C0F2020015E0D8E9006034
:10BC2000C1683046884746F63442C8F6A7125140EC
:10BC300041F6C822CAF6F812504008431AD14AF217
:10BC400035500196C0F20200039001A8029002A8AC
:10BC50000C9002200B904CF27840C0F2020008AA2F
:10BC60000A90002001260890204629460D96FEF7EE
:10BC700064FB28BBD8F80C0049F69921C0F20201F8
:10BC800000F10C020791CDE9051200F108010491C1
:10BC90004AF22F31C0F2020108AACDE9020102A93D
:10BCA0000320CDE90B0129460D904CF25040C0F223
:10BCB00002000A90002008902046FEF73EFB064650
:10BCC00030460EB05DF8048BF0BD80B56F468EB087
:10BCD000044600F058F84EF6EE20C2F2000001785B
:10BCE000002940D1012505700194FEF724FD40F2A2
:10BCF0005C00C0F20000FEF794FC40F20600022156
:10BD0000C0F20000ADF81C0007A8FEF708FE4CF6D4
:10BD1000D4204CF2A451C0F2020007AA039001A85B
:10BD200002904AF24750C0F20200C0F202010590B0
:10BD300002A804900DA8069004A80C95CDE90A501D
:10BD40004CF2BC50C0F2020009900020079006A8F7
:10BD5000FEF7F3FA4CF2C4500121C0F20200FEF7E4
:10BD6000DEFDFEF740FD4EF62450CEF200000168E5
:10BD700021F48021016000F001F8FEDE80B56F46FD
:10BD800000F003F8FEDE72B6704700DEFEDE00F063
:10BD900000B800F050B80B4611461A4600F0EDB856
:10BDA000D0B502AF1346D2B2042939D31404A1F19D
:10BDB000040E44EA0363012443EA022304EB9E04D5
:10BDC000134414F003040AD08446012C4CF8043BBD
:10BDD0000DD160467146BEF10C0F19D202E0BEF1E2
:10BDE0000C0F15D26046BDE8D040FFF7D4BF022C3F
:10BDF000436006D1083908308446BEF10C0F07D2E3
:10BE0000F0E783600C390C308446BEF10C0FE9D3A7
:10BE10001039C0E90033C0E9023310300329F7D8E4
:10BE200084466046BDE8D040FFF7B5BF0022FFF76B
:10BE3000B7BFFFF7FBBFF0B503AF2DE900070F2A2F
:10BE400061D9434213F0030400EB040C16D00346FF
:10BE50000E46357803F8015B63450FD2757803F819
:10BE6000015B63453EBFB57803F8015B634505D2CE
:10BE7000F578043603F8015B6345EAD3A2EB040EC0
:10BE800001EB04082EF0030918F003010CEB090381
:10BE90003CD0B9F1010F52DB4FEAC10A28F003018F
:10BEA00001F10805CAF10002096802F0180655F808
:10BEB000042C21FA0AF102FA06F421434CF8041B7F
:10BEC0009C453CD2296822FA0AF201FA06F4224380
:10BED0004CF8042B9C453FBF6A6821FA0AF102FA2C
:10BEE00006F421433CBF4CF8041B9C4527D2A968AB
:10BEF00022FA0AF2103501FA06F422434CF8042B18
:10BF00009C45D4D31BE00346F2B933E0B9F1010FED
:10BF100015DB444621684CF8041B9C450FD2616830
:10BF20004CF8041B9C453EBFA1684CF8041B9C4583
:10BF300005D2E16810344CF8041B9C45EAD308EBA9
:10BF400009010EF00302AAB11A440E7803F8016B3E
:10BF500093420FD24E7803F8016B93423EBF8E7826
:10BF600003F8016B934205D2CE78043103F8016BDC
:10BF70009342EAD3BDE80007F0BDD0B502AF0F2A67
:10BF800035D9434213F0030E00EB0E0C0FD00346DD
:10BF900003F8011B63453FBF03F8011B634503F82A
:10BFA000011B634503D203F8011B6345F0D3A2EBE9
:10BFB0000E0E2EF003020CEB0203012A13DBCAB2B1
:10BFC0004FF0013462434CF8042B9C450BD24CF8E3
:10BFD000042B9C453CBF4CF8042B9C4503D24CF8E9
:10BFE000042B9C45EFD30EF0030212B912E0034676
:10BFF00082B11A4403F8011B93420BD203F8011BD0
:10C0000093423CBF03F8011B934203D203F8011B88
:10C010009342EFD3D0BD70460421084203D1EFF321
:10C02000088000F004B8EFF3098000F000B8FEE7E4
:10C030002F686F6D652F6E6562656C677261752F15
:10C040002E636172676F2F6769742F636865636B16
:10C050006F7574732F656D62617373792D39333128
:10C06000326463623065643737346232392F646119
:10C0700064643661612F656D62617373792D6E72D0
:10C08000662F7372632F73616164632E7273000095
:10C0900030C002005E000000E50000003800000033
:10C0A000606173796E6320666E6020726573756D72
:10C0B000656420616674657220636F6D706C657471
:10C0C000696F6E0030C002005E000000C500000015
:10C0D0002300000053746174696343656C6C3A3AE1
:10C0E000696E697428292063616C6C6564206D75C4
:10C0F0006C7469706C652074696D6573D4C00200DE
:10C10000280000002F686F6D652F6E6562656C6793
:10C110007261752F2E636172676F2F726567697325
:10C120007472792F7372632F6769746875622E63F6
:10C130006F6D2D31656363363239396462396563F9
:10C140003832332F7374617469635F63656C6C2D6F
:10C15000312E302E302F7372632F6C69622E727302
:10C1600004C102005C0000003F0000000D00000060
:10C170002F6D6E742F42415252412F727573742F7E
:10C18000454D4245444445442F4E52462F6E7266FB
:10C190002D736F66746465766963652F6E72662DA4
:10C1A000736F66746465766963652F7372632F625B
:10C1B0006C652F7065726970686572616C2E727340
:10C1C00070C10200500000005D010000010000008D
:10C1D000606173796E6320666E6020726573756D41
:10C1E000656420616674657220636F6D706C657440
:10C1F000696F6E0070C10200500000004401000031
:10C2000029000000E4C9020051000000BD00000048
:10C210000100000074C802004D0000006D00000025
:10C2200009000000C3980200100000000400000094
:10C23000B17E0200B57E02004D756C7469706C654C
:10C24000207461736B732077616974696E67206F06
:10C250006E2073616D6520706F7274616C000000F8
:10C2600038C202002500000074C802004D00000022
:10C27000940000001A000000696E7465726E616CB3
:10C28000206572726F723A20656E74657265642003
:10C29000756E726561636861626C6520636F646569
:10C2A00074C802004D000000760000001E0000006F
:10C2B00074C802004D0000003F00000009000000AB
:10C2C000C39802001000000004000000C59802009E
:10C2D000C998020074C802004D0000005A00000016
:10C2E0001A00000063616E6E6F7420706F6C6C20BA
:10C2F00053656C6563742074776963652F686F6D2F
:10C30000652F6E6562656C677261752F2E63617251
:10C31000676F2F72656769737472792F7372632FF9
:10C320006769746875622E636F6D2D31656363365E
:10C3300032393964623965633832332F6675747502
:10C340007265732D7574696C2D302E332E32362F35
:10C350007372632F6675747572652F73656C656390
:10C36000742E7273FCC202006800000066000000B8
:10C3700030000000424C4573656E7365040303038F
:10C380000301000249525120416C726561647920B9
:10C3900074616B656E00000084C302001100000030
:10C3A0007372632F6C69622F6465766963652F62AF
:10C3B0006C6573656E73652E72730000A0C3020016
:10C3C0001A0000001A000000170000007372632FAB
:10C3D0006C69622F626C652F7365727665722E725E
:10C3E0007302010603030F180909424C4573656E79
:10C3F000736503030F180000CCC302001500000092
:10C400005900000003000000696E646578206F75B4
:10C4100074206F6620626F756E64733A207468656D
:10C42000206C656E206973202062757420746865C5
:10C4300020696E64657820697320000008C40200DA
:10C440002000000028C40200120000003A00000092
:10C45000A4C50200000000004CC40200010000005E
:10C460004CC402000100000070616E69636B65647A
:10C4700020617420272C2000B5CA020001000000B2
:10C4800074C4020003000000459A0200000000008E
:10C4900001000000479A0200303030313032303332
:10C4A0003034303530363037303830393130313162
:10C4B0003132313331343135313631373138313948
:10C4C0003230323132323233323432353236323740
:10C4D0003238323933303331333233333334333526
:10C4E000333633373338333934303431343234330C
:10C4F00034343435343634373438343935303531F2
:10C5000035323533353435353536353735383539D7
:10C5100036303631363236333634363536363637CF
:10C5200036383639373037313732373337343735B5
:10C53000373637373738373938303831383238339B
:10C540003834383538363837383838393930393181
:10C550003932393339343935393639373938393967
:10C5600072616E676520737461727420696E6465B0
:10C570007820206F7574206F662072616E67652069
:10C58000666F7220736C696365206F66206C656EE0
:10C590006774682060C502001200000072C50200C6
:10C5A00022000000C3980200040000000400000004
:10C5B00051A5020061A50200F3A50200A4C5020076
:10C5C00000000000FF6578706C6963697420706119
:10C5D0006E69632F686F6D652F6E6562656C67723B
:10C5E00061752F2E636172676F2F7265676973744F
:10C5F00072792F7372632F6769746875622E636F27
:10C600006D2D31656363363239396462396563385B
:10C6100032332F6465666D742D302E332E322F73B6
:10C6200072632F6C69622E7273000000D3C5020022
:10C63000560000006F010000050000002F686F6DBC
:10C64000652F6E6562656C677261752F2E6361720E
:10C65000676F2F72656769737472792F7372632FB6
:10C660006769746875622E636F6D2D31656363361B
:10C6700032393964623965633832332F6465666DE7
:10C68000742D7274742D302E342E302F7372632FEC
:10C690006368616E6E656C2E727300003CC60200AA
:10C6A0005E000000250000001A0000006465666D51
:10C6B00074206C6F676765722074616B656E2072A1
:10C6C00065656E7472616E746C790000ACC60200B0
:10C6D0001E0000002F686F6D652F6E6562656C67C8
:10C6E0007261752F2E636172676F2F726567697350
:10C6F0007472792F7372632F6769746875622E6321
:10C700006F6D2D3165636336323939646239656323
:10C710003832332F6465666D742D7274742D302E2B
:10C72000342E302F7372632F6C69622E7273000087
:10C73000D4C602005A0000003A0000000D000000BC
:10C740001BAB020025AB020025AB020029AB0200A7
:10C750002F686F6D652F6E6562656C677261752FEE
:10C760002E636172676F2F6769742F636865636BEF
:10C770006F7574732F656D62617373792D39333101
:10C78000326463623065643737346232392F6461F2
:10C7900064643661612F656D62617373792D6E72A9
:10C7A000662F7372632F74696D655F647269766555
:10C7B000722E727350C70200640000001B0100005B
:10C7C0000D0000002F686F6D652F6E6562656C67E8
:10C7D0007261752F2E636172676F2F6769742F63A3
:10C7E0006865636B6F7574732F656D6261737379C0
:10C7F0002D393331326463623065643737346232E5
:10C80000392F646164643661612F656D6261737391
:10C81000792D6E72662F7372632F6770696F7465FE
:10C820002E727300C4C702005F0000008800000081
:10C8300011000000C4C702005F0000008900000072
:10C84000110000000100706F7274616C73206172DE
:10C8500065206E6F7420757361626C652066726FFF
:10C860006D20696E746572727570747346C80200CB
:10C87000260000002F6D6E742F42415252412F72DC
:10C880007573742F454D4245444445442F4E5246DE
:10C890002F6E72662D736F66746465766963652F9B
:10C8A0006E72662D736F66746465766963652F7347
:10C8B00072632F7574696C2F706F7274616C2E7255
:10C8C0007300000074C802004D0000001B0000004F
:10C8D00005000000506F7274616C6C3A3A63616CD1
:10C8E0006C28292063616C6C6564207265656E74C8
:10C8F00072616E746C790000D4C8020022000000DE
:10C9000074C802004D000000300000002300000049
:10C910002F6D6E742F42415252412F727573742FD6
:10C92000454D4245444445442F4E52462F6E726653
:10C930002D736F66746465766963652F6E72662DFC
:10C94000736F66746465766963652F7372632F62B3
:10C950006C652F636F6E6E656374696F6E2E727394
:10C9600010C90200500000000C020000200000006E
:10C9700010C9020050000000210200000F0000005A
:10C980002F6D6E742F42415252412F727573742F66
:10C99000454D4245444445442F4E52462F6E7266E3
:10C9A0002D736F66746465766963652F6E72662D8C
:10C9B000736F66746465766963652F7372632F6243
:10C9C0006C652F676174745F636C69656E742E7239
:10C9D0007300000080C90200510000004402000002
:10C9E000060000002F6D6E742F42415252412F728B
:10C9F0007573742F454D4245444445442F4E52466D
:10CA00002F6E72662D736F66746465766963652F29
:10CA10006E72662D736F66746465766963652F73D5
:10CA200072632F626C652F676174745F73657276D1
:10CA300065722E7273000000E4C90200510000000C
:10CA4000EA010000060000002F6D6E742F42415273
:10CA500052412F727573742F454D424544444544ED
:10CA60002F4E52462F6E72662D736F667464657614
:10CA70006963652F6E72662D736F6674646576697F
:10CA800063652F7372632F626C652F6C3263617004
:10CA90002E72730048CA02004B0000007F000000A5
:10CAA000060000000908070605040302302F2E2D9A
:10CAB0002C2B2A292827262524232221201F1E1D2E
:10CAC0001C1B1A191817161514131211100F0E0D1E
:10CAD0000C0B0A00C39802000400000004000000D0
