:020000022000DC
:10700000000001200171020067A702003BC20200DC
:1070100067A7020067A7020067A702000000000040
:1070200000000000000000000000000067A7020050
:1070300067A702000000000067A7020067A7020020
:1070400067A7020067A702002B9C02001D9C02009C
:1070500067A7020067A702005BB202000F9C020054
:1070600067A7020067A7020067A7020067A70200E0
:1070700067A7020067A7020067A7020067A70200D0
:1070800067A70200E1B0020067A7020067A702003D
:1070900067A7020067A70200FBBD020067A7020006
:1070A00067A7020067A7020067A7020067A70200A0
:1070B00067A7020067A702000000000000000000B0
:1070C00067A7020067A7020067A7020067A7020080
:1070D00067A7020067A7020067A7020067A7020070
:1070E00067A7020067A7020067A702000000000070
:1070F0000000000067A702000000000067A7020070
:1071000003F032FB0E480F490022814201D004C037
:10711000FBE70D480D490E4A814202D008CA08C05B
:10712000FAE70C484FF47001026842EA010202607B
:10713000BFF34F8FBFF36F8F00F098FE00DE0000AB
:10714000C8DA00201CEB002050DA0020C4DA00204E
:1071500048CD020088ED00E0F0B503AF2DE9000F47
:10716000A3B006464CF69010C0F2020047F20008A9
:10717000CDE9046006F12000029041F2045B96F82C
:107180002C0040F2045A40F22C744DF68823C4F2CD
:107190000008C4F2010BC5F2000AC5F20004C2F2F5
:1071A00000030396DFE810F006006C046C04D300C3
:1071B000C4006D04706A306203F0CFFB40F2070038
:1071C000C0F2000003F03FFB03F01FFC04F0AEF937
:1071D0004DF69862C2F200021178002940F0228434
:1071E0000121117008BB4DF6D063EFF3108000222F
:1071F000C2F2000372B61A704DF6D462C2F20002F7
:1072000040F2FC631268CFF6FF53C00702EA0302A4
:107210004EF20013CEF200031A604DF6D862C2F2AD
:10722000000212685A6000D162B608200022C4F23F
:107230000000C0F81025C0F8FC200160D0F8FC1058
:107240000029FBD0AAF5017007904FF0A04006A9D5
:107250000690002001224FF0FF3351F820500130FA
:107260000228C5F82425C5F82035F6D14EF20012C3
:107270004EF20240CEF200004021CEF20002C2F8EF
:1072800080110171116046F27C11C4F200010022EC
:107290000A604FF00042C1F888214FF40001022239
:1072A000CBF8481041F20001C0F20802C4F201011B
:1072B000C1F8042301228A600A60DBF8001000296B
:1072C000FBD14EF200124021C1734FF40031CEF2D7
:1072D000000211604FF40051CAF808100321A160A8
:1072E0004DF6C841C2F20001D1E84F2F4AB9012240
:1072F000BFF35F8FC1E8432FC3B3D1E84F3F002BEB
:10730000F8D0BFF32F8F01204CF2F471BFF35F8FE1
:1073100009904CF2C850C0F20200C0F2020108907D
:1073200000200A914CF2EC510B90C0F20201C5E032
:10733000354615F8380F810700F04583032840F0E3
:1073400085834CF690123146C0F20202ECE33546DA
:1073500015F8340F002800F00581032840F07F83E2
:107360004CF690123146C0F2020206E1602147F26B
:10737000F453BFF35F8F417101220221C8F8002549
:10738000C4F20003C8F8F015002119600323C8F8FF
:1073900010354FF40033C8F818354FF6FF73C0F2BC
:1073A0003F0347F6C965C8F808334DF6C863C2F213
:1073B0000003C0F202051D604EF200158023CEF2DC
:1073C0000005C5F880312B604DF6C943C2F20003B9
:1073D000D3E84F5F45B9BFF35F8FC3E8452FCDB109
:1073E000D3E84F5F002DF8D04CF2C850BFF32F8F79
:1073F000C0F20200BFF35F8F08904CF2F4700B9163
:10740000C0F2020006914CF2FC51C0F20201099256
:107410000A9054E06021BFF35F8F41704FF4C06168
:10742000CAF81C120822216043F20051C4F2000184
:107430000B23CA604FF0FF358B6006230B604FF0C3
:10744000CC734B624FF60863CFF6FF73CD504DF609
:10745000C06147F68D63C2F20001C0F202030B6007
:107460004EF20011CEF20001C1F880210A604DF603
:10747000CA41C2F20001D1E84F2F4AB90122BFF33D
:107480005F8FC1E8432FF3B1D1E84F3F002BF8D015
:10749000BFF32F8F01204CF2F471BFF35F8F09907F
:1074A0004CF2C850C0F20200C0F202010890002065
:1074B0000A914CF20C610B90C0F20201069006A8F2
:1074C00002F0BCFBFEDE6021BFF35F8F01704FF462
:1074D0004070C4F8FC0242F24C10C4F200002A21B1
:1074E000C0F8C813082140F20332C4F8DC10C4F815
:1074F000E0222322C0F8C0234FF0004247F61D735C
:10750000C0F8C423C0F8BC234DF6B862C2F2000232
:10751000C0F2020313604EF200130422CEF2000305
:10752000C3F880211A6000224FF0EB73C0F82024CA
:10753000C0F8D8334FF0FF33C0F8BC313546026095
:107540004260C0F8B4134DF69C60C2F20000022104
:10755000017445F8342F029845F8040C40F60D509C
:1075600025F80A0C0020C8F810011020C8F8040300
:10757000DDE904120120C8F80C004DF69060C2F25B
:10758000000003F0E2FED8F81001002800F0188295
:1075900040F2004200210120C0F20212C8F810118E
:1075A0002870CDF8572002228DF848201822CDF8F7
:1075B0004A200122C0F200120D910C9240F20112F9
:1075C000C0F20202ADF83E10CDF83A204FF48032FE
:1075D000ADF83810CDE910124FF0081109914CF2B6
:1075E000A451C0F202018DF8560008914FF4807149
:1075F000CDE906014FF4B061CDE90A014EF6143130
:10760000C2F20001D1E84F2F6AB906AABFF35F8F1B
:1076100002F1040902F12306C1E8430F83B1D1E866
:107620004F3F002BF8D0BFF32F8FBFF35F8F03F0D6
:1076300094F940F25500C0F2000003F004F99EE115
:10764000BFF35F8F4BF643519DF85600C0F2020125
:10765000002818BF02F13F0010DF002840F0C4816D
:10766000BDF8460001259DF84810BDF84A200028C5
:1076700008BF0322ADF8702008BF01218DF86E10FD
:107680001BA920208DF86C5004F095FBBDF830004C
:10769000012809D1BDF832001BA9ADF86E002320E6
:1076A0008DF86C5004F087FB9DF8340050B19DF8C4
:1076B00035001BA98DF86E0001208DF86C0021208B
:1076C00004F079FB9DF8360050B19DF837001BA9F6
:1076D0008DF86E0001208DF86C00222004F06BFB09
:1076E000BDF84C0001280ED1DDF84E00DDF8521037
:1076F000CDF872101BA9CDF86E0001208DF86C003A
:10770000242004F058FB9DF8380038B19DF839006A
:107710001BA98DF86C00012004F04DFB9DF83A0088
:1077200040B1316830791B911BA98DF87000402061
:1077300004F041FB0698012807D11BA999E84C00E9
:1077400008464CC0412004F036FB9DF8400038B19B
:107750009DF841001BA98DF86C00422004F02BFB22
:107760009DF8420038B19DF843001BA98DF86C00CC
:10777000432004F020FB9DF8440038B19DF84500FB
:107780001BA98DF86C00A02004F015FB0A980128B5
:1077900005D10B981BA91B90A12004F00CFB4DF602
:1077A00050291BA8C2F20009CDF86C9060DF054695
:1077B0001B9E03F0D2F840F25700C0F2000003F025
:1077C00042F806F1604003F0F0FE03F01EF9002DD0
:1077D00040F014811B9848450CD203F0BEF840F2EB
:1077E0005B00C0F2000003F02EF81B9803F0DDFEF2
:1077F00003F00BF94EF200114FF48000CEF20001BD
:107800004EF616330860C2F20003BDF84C004FF08C
:1078100001090C990025BDF84E20002808BF172249
:107820005A8008041BAA4FEA114006A908BF172076
:10783000188041F60F008DF81A90ADF8180001205D
:10784000ADF86C50A8DF002840F0BF80BDF86C0098
:1078500040F2011601907B2007F8490C06A88DF82C
:107860001C50069604F03BFAADF86000000C8DF851
:10787000620042F61920ADF8640006A88DF8669003
:10788000ADF81B508DF81A50ADF8186004F027FAC7
:107890000002079501301A901220CDE90855ADF885
:1078A00018001AA801300B90A7F149001F9018A8E2
:1078B0001C9019A81B900A9506A90C951BAAADF857
:1078C000789020ABCDF87490CDE920550198AADFCF
:1078D00000287AD14DF61831BDF88490C2F200012B
:1078E000BDF8803051E8020F039E48B90320BFF372
:1078F0005F8F41E8020272B151E8022F002AF8D0EE
:10790000BFF32F8FBFF35F8F03F027F840F209001A
:10791000C0F200002FE001930020BFF35F8F81F8D9
:107920003C004EF61630029DC2F2000048F21D5295
:107930008863C0F2020228684A6103F042FA4DF6F9
:1079400060312868C2F2000151E8022F4AB90322CF
:10795000BFF35F8F41E80223B3B151E8023F002B30
:10796000F8D0BFF32F8FBFF35F8F02F0F6FF40F226
:107970000A00C0F2000002F066FF02F097F803F080
:1079800044F802F06EFFFEDEBFF35F8FC1F8CC005B
:107990004EF616300022C2F2000081F8D420C1F861
:1079A000D00049F2D9420198C0F20202A1F8A80021
:1079B0000298A1F8AA904A61006803F002FA96E0E2
:1079C000032028703CE1706B9BE003F0DBFF044672
:1079D00002F0C3FF40F20800C0F2000002F033FFE3
:1079E000204600F02FFACAE703F0CCFF044602F06D
:1079F000B4FF40F25600C0F2000021E0284603F038
:107A0000C1FF042815D11B9C02F0A7FF4C4532D9B9
:107A100040F25900C0F2000002F015FF1B9803F07D
:107A2000C4FDACE702F099FF40F21800C0F200007C
:107A300003E6044602F091FF40F25A00C0F2000053
:107A400002F001FF204603F0F5FD98E74CF2D0204C
:107A50004CF2C022C0F20200C0F2020207E04CF277
:107A6000D0204CF2F422C0F20200C0F20202232124
:107A700002F058FDFEDE40F25800C0F20000DCE5E6
:107A8000FEDE96F83800002800F0CD801A6BDBF897
:107A9000003002F00105D6E90C0183EAC553550A0E
:107AA00013EBC25245F10003121A73EB0102C0F04E
:107AB000BC8096F82B0051460123202828BF04F1F2
:107AC000D80100F01F020E6803FA02F1314206D01D
:107AD00004F1E002202838BF0AF1080205E004F1B1
:107AE000DC02202838BF0AF104021160039E002145
:107AF000354605F8381F284620F8101D029945E93B
:107B0000021047F2F451C4F2000188630120C863F7
:107B10000021C8F804110221C8F80413DDE9041299
:107B2000C8F80000C8F804004DF69060C2F20000EA
:107B300003F00BFCD8F80401002800F07E80002040
:107B4000A146C8F80401C8F814010120C8F80800CB
:107B5000D8F814010028FBD00020C8F81401B6F9A9
:107B60002800C10D50FA81F0642100B2000A484398
:107B7000012186F8381048F2810100F5485080B2A2
:107B800000FB01F403F0D2FC4DF608320546C2F2C8
:107B9000000202261378D2E901011670E60D012BCE
:107BA000567004BF496888470DBB4DF6D062EFF3AD
:107BB00010800021C2F2000272B611704DF6D4613D
:107BC000C2F2000140F2FC620968CFF6FF52C00722
:107BD00001EA02014EF20012CEF2000211604DF6EF
:107BE000D861C2F200010968516000D162B64DF659
:107BF00088230021C2F200034C46186BDBF80020FA
:107C0000039E86F8381000F0010182EAC151420A51
:107C100011EBC05042F1000110F5004041F10001AC
:107C2000C6E90C012DE7D6E90C0104AA03F04BF9D3
:107C3000012086F83800052002E003202870042087
:107C400086F82C0023B0BDE8000FF0BD80B56F466C
:107C500082B080464DF6C820C2F2000003220146E1
:107C600000F14003994200F0DE8051E8023F53B931
:107C700001F10803BFF35F8F43E800264EB153E8DC
:107C8000006F002EF8D0BFF32F8F4031BFF35F8F0E
:107C9000E6E747F25910BFF35F8FC0F202004FF0E2
:107CA00000094861404681F82C90C1F8248003F017
:107CB00088F84FF0FF3B08F1080001904DF688204E
:107CC000C2F20000006B019900F001020D6841F260
:107CD0000451C4F20101096881EAC251420A11EB60
:107CE000C05A42F1000405B3019ED5E90001BAEB88
:107CF000000074EB010002D205F1180612E02846DC
:107D000003F025F8A869306005F10800BFF35F8F24
:107D100050E8001F21F0040140E80012002AF7D1CA
:107D2000BFF35F8F3568002DDFD1BFF35F8F58E859
:107D300000AF48E800900028F9D1BFF35F8FBAF197
:107D4000000F32D05546DAF80CA005F10804C5E959
:107D500000BBBFF35F8F54E8000F20F0020144E83E
:107D60000012002AF7D1C007BFF35F8FE7D069691F
:107D700028468847D5E9000181EA0B0180EA0B001B
:107D80000843DCD0BFF35F8F54E8000F40F00401DC
:107D900044E80012002AF7D14007BFF35F8FCED42A
:107DA00001990868A8610D60C9E701984FF0FF329A
:107DB0004FF0FF33016869B301984FF0FF324FF085
:107DC000FF33D1E90065AB42344638BF1446B242B6
:107DD00028BF3246AB4218BF224685EA0B0486EA2A
:107DE0000B0628BF2B46264316B101F118000EE002
:107DF0008E6908310660BFF35F8F51E8006F26F08F
:107E0000040641E80065002DF7D1BFF35F8F0168DC
:107E10000029D6D198F8100003F0CCF800283FF4E0
:107E20004DAF20BF4AE702F098FD40F21700C0F2C4
:107E3000000002F008FD01F039FE02F0E6FD02F05C
:107E400010FDFEDED0B502AF82B0044640F2420023
:107E5000C0F20000022127F80A0CA7F10A0002F084
:107E600070FE204603F0E6FB02B0D0BD80B56F4641
:107E700000F001F8FEDE80B56F4686B001AC20460A
:107E800002F0D6FF2046FFF7E1FEFEDED0B502AFDE
:107E900043F20414C4F20004206840B14DF6B0600F
:107EA000C2F2000003F0ABFA0220C4F80402206A18
:107EB00048B14DF6B060C2F2000003F0A0FA4FF4F2
:107EC0000070C4F80402D0BDD0B502AF47F2001470
:107ED000C4F20004206940B11020C4F808024DF635
:107EE0009060C2F2000003F08AFA606840B102209C
:107EF000C4F808024DF69060C2F2000003F07FFA69
:107F0000206850B10120C4F808024DF69060C2F21A
:107F10000000BDE8D04003F072BAD0BDD0B502AFCA
:107F200042F21014C4F20004206840B14DF69C6087
:107F3000C2F2000003F063FA1020C4F8F8012069CF
:107F400050B14DF69C60C2F20000083003F057FAC1
:107F50004FF48070C4F8F801D0BDF0B503AF2DE93F
:107F6000000B0C46054603F0E1FAD5E900198046FE
:107F7000AE680020286039B1012933D120688145DD
:107F800013D061680A681AE0D4E9000109688847DB
:107F9000D5E900430246AE680120012CC5E9000284
:107FA000A9601FD1F16818461AE06368D6F800C0CE
:107FB0001A68944502BF746859688C423AD0904759
:107FC0000246D5E90040D5F808C00123012CC5E9D7
:107FD0000032A96004BFDCF80C108847716848467D
:107FE00088470120B8F1000F21D14DF6D062EFF3A0
:107FF00010810023C2F2000272B613704DF6D462F3
:10800000C2F2000240F2FC631268CFF6FF53C907C8
:1080100002EA03024EF20013CEF200031A604DF69C
:10802000D862C2F2000212685A6000D162B6BDE89E
:10803000000BF0BD9968B2688A4201D06246BEE783
:10804000D968F2688A426246B9D101202860C9E73E
:10805000B0B502AF054603F069FA0446D5E9002041
:10806000A9680223012A2B6004BF496888470CBB1A
:108070004DF6D061EFF310800022C2F2000172B61B
:108080000A704DF6D461C2F2000140F2FC62096848
:10809000CFF6FF52C00701EA02014EF20012CEF203
:1080A000000211604DF6D861C2F20001096851600A
:1080B00000D162B6B0BD00F000B8F0B503AF2DE955
:1080C000000F85B006680D463168022940F0C8806F
:1080D0000121D6E9018B31602988112907D1D0E926
:1080E000021000220A60FFF7B3FF0320AAE04468F1
:1080F000A88803F0F9FCC00700F0BE8028888A46F3
:10810000502829D051280CD0522840F09780A888B8
:1081100003F0EAFC0D46C10747D1000640F08B8012
:108120008CE0A879022840F0B280A97B481EC0B23A
:10813000052840F2B48002F010FC40F24700C0F283
:10814000000002F080FBA87B03F045FA02F05DFC22
:10815000504600F0E5F874E0287B0138062831D25B
:10816000288A00286AD02068E9884088884265D13A
:10817000AC7C02F0F2FB40F20E00C0F2000002F014
:1081800062FB40F202000221C0F20000ADF81000D4
:1081900004A802F0D6FC04F0010007F81D0CA7F1BA
:1081A0001D00012102F0CDFC17E0284607F8215CF4
:1081B00003F0D7FCA0B14A6BA7F12101904717F853
:1081C000215C38E002F0C9FB40F24600C0F200003A
:1081D00002F039FB287B03F0FEF902F016FC2DE0DB
:1081E000E8B2142834D24DF6E8617422C2F20001DC
:1081F00010FB0210B0F8601001290CD1B0F8620039
:10820000002100220023B1DFA8B103F0BBFB04462C
:108210004FF0010901E04FF0000902F09EFB40F22F
:108220004500C0F2000002F00EFB4846214600F077
:10823000BDF802F0EAFB284603F0F9FB504603F0D4
:10824000F6FB022086E8010905B0BDE8000FF0BD8D
:108250004CF6B0321421C0F2020201F00FFDFEDE36
:108260004CF2A8404CF2D042C0F20200C0F202022E
:10827000282102F057F9FEDE02F06FFB40F24400C5
:10828000C0F2000002F0DFFA03F080F919E00128E3
:108290000FD1E9895246288900F018F8FEDE2889B6
:1082A0002A8A6B8ACDE9003A05F1140300F026F81A
:1082B000FEDE02F052FB40F24800C0F2000002F085
:1082C000C2FA02F0A2FB02F0CCFAFEDE80B56F46E5
:1082D00082B0ADF8040068468DF80620009100F0E9
:1082E0008DF802F03AFB40F24000C0F2000002F0CC
:1082F000AAFA02F08AFB02F0B4FAFEDE80B56F46FD
:10830000F86800F079F802F028FB40F24100C0F272
:10831000000002F098FA02F078FB02F0A2FAFEDE0A
:10832000B0B502AF84B0044602F017FB40F236004D
:10833000C0F2000002F087FA0220022503F04BF998
:1083400002F063FB204603F0B5FB80B2012815D193
:1083500000208DF80050CDE902008DF806004FF4A2
:108360008570ADF8040088B26946B0DFC8B103F08B
:1083700009FB0546204603F05AFB04E0204603F0C3
:1083800056FB43F2020502F0E8FA40F23700C0F271
:10839000000002F058FA284603F04CF902F035FBD1
:1083A00002E0204603F043FB04B0B0BDB0B502AF1D
:1083B00082B0054640F24A00C0F200000C46ADF81B
:1083C000040001A8022102F0BCFB5DB101200121E3
:1083D00007F8090CA7F1090002F0B3FB204603F0EF
:1083E00029F907E00020012107F80A0CA7F10A008B
:1083F00002F0A7FB02B0B0BDFFF792BFB0B502AF6D
:1084000084B0044602F0A9FA40F23600C0F200003F
:1084100002F019FA0120012503F0DDF802F0F5FA67
:10842000A479204603F046FB80B2012815D1002034
:108430008DF80050CDE902008DF806004FF48570EC
:10844000ADF8040088B26946B0DFC8B103F09AFA0B
:108450000546204603F0EBFA04E0204603F0E7FA75
:1084600043F2020502F079FA40F23700C0F2000050
:1084700002F0E9F9284603F0DDF802F0C6FA02E05E
:10848000204603F0D4FA04B0B0BDB0B502AF82B05C
:10849000054640F24900C0F200000C46ADF8040069
:1084A00001A8022102F04DFB5DB10120012107F876
:1084B000090CA7F1090002F044FB204603F0BAF8CA
:1084C00007E00020012107F80A0CA7F10A0002F0DA
:1084D00038FB02B0B0BDD0B502AF01780022027007
:1084E000C80708BFD0BD4DF6C020C2F2000000781A
:1084F00074DF88B103F046FA044602F02EFA40F227
:108500003E00C0F2000002F09EF9204603F092F80F
:10851000BDE8D04002F079BAD0BDD4D4F0B503AFF5
:108520002DE9000FC1B090F83C100646203049B14B
:1085300096F8341059B196F82C1069B196F82410B9
:1085400071B90CE0B16B002286F834203163316BD5
:10855000002286F82C20B1620021C0E900110060E1
:108560004DF6DC604CF69012C2F20000C0F202023E
:10857000314602F0EAFE08AC0020089020464BDFAE
:1085800080B9089D281F082828BF022DF6D3032D87
:1085900004D0022D40F0B584032000E0002002F05A
:1085A00096FFEBE7079603F0EDF9052840F0B58458
:1085B00039A80DF1CC080230039008F110000DF13C
:1085C000A809029009F11000019008F102000DF1D4
:1085D000240B05900BF1120004900BF1080006909B
:1085E000A7F17A06802527F87A5C3146584661DF84
:1085F000002840F04884BDF82400411E0F29F2D322
:10860000A0F11001202927D21629ECD8DFE811F0BB
:108610001800D3038200A50010011B0117003F01C1
:1086200017006E01A501B0011700BC011700C101C0
:108630001700D6011700EB01F00117000F02D2E777
:108640009DF8330003F0ECFA002800F011824EF69A
:108650003800C2F200000FE2A0F1300120290BD255
:10866000BDF82800142880F025844EF6440100EB64
:108670004000C2F2000147E0A0F15001202920D2C1
:10868000BDF82840552836D14EF61630C2F200000B
:108690000588BDF82A00A84238BF0546172D98BFA7
:1086A000172529462046B5DF002800F0C58103F0D4
:1086B00069F9044602F051F940F24B00C0F20000A3
:1086C000EEE2A0F170012029BFF48DAF75283FF4D0
:1086D0008AAF742800F03284772800F03884BDF81F
:1086E0002800142880F08A844EF6242100EB4000F4
:1086F000C2F2000108E0142C80F0EB834EF6341136
:1087000004EB4400C2F2000101EB8000594603F083
:108710000DF968E7BDF82800142880F0D5834EF2E3
:10872000F872C2F2000212F81010012940F0E08342
:1087300002EB40004078142880F0C1834DF6E864D5
:108740004FF0740C00FB0CF3C2F20004DDE90B12D5
:1087500010FB0C40E150426045E7BDF828001428AA
:1087600080F0B2834EF2F8720125C2F2000212F8D4
:108770001010012940F0BC8302EB40004078132820
:1087800000F29D83CB46002200210B1D022901F13E
:108790000101DBB205FA03F322EA030638BF42EA1D
:1087A000030603293246F0D14DF6E8617422C2F285
:1087B000000110FB0219D9F80880B8F1000F00F091
:1087C000E381D9F80CA04046DAF80C108847C0B213
:1087D0004CF2AC5180F00400C0F202014FF0010CE9
:1087E000085C00210A1D20FA01F3B1F1200458BFF2
:1087F0000023D2B2DB070CFA02F226EA020501F1ED
:10880000010118BF46EA020503292E46EAD1BDF848
:10881000280003F069F9C20740F0B881A7F17A0691
:10882000000602D0084603F002F90DF1CC08CDE1B4
:10883000BDF8280003F058F9C00740F02881002552
:108840008DF8A85018E2BDF82800142880F03C8369
:108850004EF2F872C2F2000212F81010012940F034
:10886000478302EB40004078132800F228834DF63E
:10887000E8617422C2F2000110FB0211886800282E
:108880003FF4B1AEC9688A6906999047ABE6BDF876
:108890002800142880F018834EF2F872C2F2000209
:1088A00012F81010012940F0238302EB40014978AF
:1088B000132900F219834DF6E8627423C2F2000214
:1088C00011FB03218C68002C00F0B681CD689DF867
:1088D0002C10022900F0AC81012940F0AD8103F099
:1088E00003F9C00700F0A881072002E29DF82C00E0
:1088F00000287FF478AE9DF82D0010F004003FF4BE
:1089000072AEBDF8280003F0EFF8C2072CD0C8B251
:10891000132807F8551C00F2D2824DF6E862742342
:10892000C2F2000210FB03229068002800F0378298
:108930009DF83130D2F80CA09B0700F1DF8102993D
:10894000D2F86A60D2F86730C1F803600B6000218A
:10895000CDE93311CDE93511F4E1BDF8280003F07C
:10896000C3F8C20740F0B480000640F018823AE62F
:108970009DF82C40012C07D0022C40F012834EF6BB
:108980002000C2F20000C1E64EF62C00C2F2000048
:10899000BCE6DDE90B12CDE92A124946BDF82800F4
:1089A00075DF00283FF41FAE02F0ECFF044601F033
:1089B000D4FF40F22D00C0F200004FE1BDF82C10B2
:1089C000ADF8A8104946BDF828008FDF00283FF415
:1089D0000AAE02F0D7FF044601F0BFFF40F22F00BD
:1089E000C0F200003AE1BDF8280003F0D2F8FAE541
:1089F000BDF82800142880F067824EF2F872C2F2A7
:108A0000000212F81010012940F0728202EB4000BF
:108A10004078142880F053824DF6E8627423C2F245
:108A200000020B9910FB032080F86E10DBE54EF678
:108A30003800C2F2000069E6142C80F04F824EF23A
:108A4000F871C2F2000111F81400012840F05082C0
:108A500001EB44004078142880F031824DF6E86143
:108A60007422C2F2000110FB0210A0F864501EE153
:108A70004EF62000C2F20000594602F057FF0028CF
:108A80007FF4B1ADBDF82800132176DFABE50846D1
:108A90000C468DF8F01003F064F8002800F0E68032
:108AA000049E0246CD6A059933687668BDF83400A5
:108AB0004E60A7F17A060B6011463CAAADF8CC00D7
:108AC00048464346A8479DF8A8509DF8F040D0E09E
:108AD000C8B213288DF8A81000F2F1819DF82C502F
:108AE0004FF0000C4FF0000E0026F4B225FA04F40B
:108AF000E40711D0C6F120030122B6F1200422FAC6
:108B000003F358BF02FA04F34EEA030E02FA06F327
:108B100058BF00234CEA030C0136042EE5D1A7F11F
:108B20007A0600224FF0000E0024231DDBB225FA46
:108B300003F3DB0713D0C4F120064FF0010AB4F1B0
:108B400020032AFA06F658BF0AFA03F60AFA04F3D3
:108B50004EEA060E58BF0023A7F17A061A430134E5
:108B6000042CE2D15FFA8CF3022B00F0A280012BDF
:108B70004FF0800500F0A480002B40F0A580120685
:108B800040F0A2800022A0E035461BE0DAF8142075
:108B900040468DF8A81059465C469047DAF81020F8
:108BA000064640465946904780469DF8A80002F088
:108BB0003EFF05F07E00B8F1000F00EB060518BF80
:108BC00065F07F050DF1CC08A7F17A0641F20701A7
:108BD0000022C0F20331BDF82800CDF8CD1009F114
:108BE00048012F9109F12C018DF8CC505B46CDE95D
:108BF0002D2109F110012A910021CDE93022D94619
:108C0000CDE92B2242467FDF78B102F0BBFE04465D
:108C100001F0A3FE40F23000C0F2000001F013FEAC
:108C2000204602F007FD01F0F0FE0DF1240B3EE0BE
:108C300002F05AFFC0075BD1BDF8280000210022D6
:108C4000802580DF00283FF4CEAC02F09BFE044676
:108C500001F083FE40F23100C0F2000001F0F3FDAC
:108C6000204602F0E7FC01F0D0FEBCE400258DF8C0
:108C7000A850204602F0DBFEE9B2BDF8280000292A
:108C800018BF09F101010022002386DF78B102F04C
:108C900079FE044601F061FE40F23200C0F20000AD
:108CA00001F0D1FD204602F0C5FC01F0AEFE8025AA
:108CB00099E4D2B2012A4FF0800575D1052204E073
:108CC000531EDBB2042B00D301224DF6E86374245B
:108CD000C2F2000310FB0433986883F86F20002869
:108CE0005DD0D9684B6A494698479DF8A81056E070
:108CF000082055F8202020469047D8E702F1480E7A
:108D0000D446DA46C846CB46F146B9E87A00A8E828
:108D10007A00B9F8001099F80230D946A8F8001086
:108D2000D34688F802300DF1CC089EE87800E24680
:108D3000414678C1019B029E1968D3F80330C6F8FA
:108D400003303160039D02F1100CD2E90913CE46C5
:108D5000568C6B603CAB2960ADF8E4601A46BCE809
:108D6000720072C29CF80010C4461170BCE8760014
:108D7000AEE876009CF80210BCF80020DAF8286013
:108D8000AEF8002039AA8EF80210A7F15501CDF8EF
:108D90000090B04717F8551CA7F17A0680250846C1
:108DA00002F045FEFFF71FBC022A4FF0070208BF82
:108DB000062289D189E7BDF82800142880F0848034
:108DC0004EF2F872C2F2000212F81010012940F0BF
:108DD0008F8002EB40004078132870D84DF6E86190
:108DE0007423C2F2000110FB0316B6F860000028DD
:108DF00000F0C280B6F86240142C6FD212F8140052
:108E0000012840F0C080C246D6F80880B8F1000FB3
:108E100014D02046F56802F067FEC00700F0BA8063
:108E20002A6B40468DF8A810494690479DF8A80047
:108E300002F0FDFD4EF2F872C2F200020020594627
:108E400002F8140004EB4404A6F860004EF6440057
:108E5000C2F2000000EB840002F068FD4EF6341010
:108E60005946C2F2000000EB840002F05FFD4EF6AE
:108E700024205946C2F2000000EB840002F056FDA7
:108E8000D046FFF7ADBB02F07DFD052804D00446B7
:108E900043F20100844248D10799032081F83C0045
:108EA00081F8340081F82C0081F8240041B0BDE83D
:108EB000000FF0BD4CF62442C0F20202A2E04CF6D4
:108EC000B032C0F202029DE04CF6C032C0F20202A3
:108ED00098E04CF68842C0F2020203E04CF6C03241
:108EE000C0F2020220468DE04CF6B0320846E8E7B8
:108EF00001F033FD40F22C00C0F2000001F0A3FCB1
:108F000077E001F02AFD40F22000C0F2000001F0FD
:108F10009AFC284602F049FB6BE0044601F01DFD77
:108F200040F22100C0F2000020E00C2C18D101F02A
:108F300014FD40F22200C0F20000DFE70B9C01F0BC
:108F40000CFDC4BB40F24C00C0F200004DE00B9899
:108F5000B0BB01F002FD40F24E00C0F2000044E060
:108F600001F0FBFC40F22300C0F2000001F06BFCBA
:108F7000204602F05FFB3CE001F0EFFC40F22600EF
:108F8000C0F20000BAE701F0E8FC40F22700C0F2AE
:108F90000000B3E701F0E1FC40F22800C0F200005D
:108FA000ACE701F0DAFC40F22E00C0F2000001F064
:108FB0004AFC2046AEE740F24D00C0F2000014E04B
:108FC000BDF82800142819D24EF6242100EB4000E9
:108FD000C2F2000101EB800009A902F0A7FC01F038
:108FE000BCFC40F24F00C0F2000001F02CFC02F08B
:108FF000CDFA01F00AFD01F034FCFEDE4CF6E4424D
:10900000C0F20202142100F039FEFEDEF0B503AF1B
:109010002DE9000F8FB090F88E204CF69011C0F221
:109020000201CDE90601A2B1032A3BD1034600218A
:1090300053F8804F5E6819603CBB4CF214504CF200
:109040009452C0F20200C0F20202182101F047FB64
:10905000FEDE90F88C10034603F88D1F0021A3F16B
:109060005506A3F16D0453F8052C43F8096C03F879
:10907000111C03F8591C43F8193C43F8152C43F80C
:10908000612C43F85D3C43F80D1DCDE90130207D96
:10909000039610B1D4F8089013E0D4E90301C4E9B1
:1090A000000108E04CF200404CF24862C0F20200BD
:1090B000C0F20202F4E14DF60839C2F20009C4F828
:1090C000089002F033FA804699F8000099F80150B0
:1090D0000021D9E9016A4FF0010B89F8001040B175
:1090E000012840D106980594864218D007990A684D
:1090F00021E0DDE906010968884799F80060024629
:10910000D9E9010389F800B04FF0000B012EC9E93D
:10911000012128D1D96888474FF0000B23E0079B35
:10912000DAF800C01A68944502BFDAF804405968BA
:109130008C4200F09E8004959047024699F80040CA
:10914000D9E901030125012C89F80050C9E9012161
:1091500004BFD9688847DAF80410304688474FF0D2
:10916000000BDDE90454B8F1000F21D14DF6D061B8
:10917000EFF310800022C2F2000172B60A704DF6C1
:10918000D461C2F2000140F2FC620968CFF6FF52DE
:10919000C00701EA02014EF20012CEF20002116095
:1091A0004DF6D861C2F200010968516000D162B683
:1091B000BBF1000F64D0D4E9001007F8375C0078E9
:1091C000142880F038814DF6E8627423C2F2000260
:1091D000098810FB0320B0F86020012A16D1A7F1FE
:1091E00037030C93A7F1360301220B930023ADF84C
:1091F000241009A9B0F8620027F8362CADF8283001
:109200008DF82620AEDF08B320680188A7F137006B
:109210000A90012009AA09904FF6FF70ACDF0028E0
:109220003FF449AF02F0AEFB044601F096FB40F27A
:109230001100C0F2000001F006FB01202146FFF7FB
:1092400024F901F0E2FB01F00CFBFEDE01F085FBEE
:1092500040F21000C0F2000001F0F5FA17F8370CE8
:1092600001218DF8240009A801F06BFC01F0CDFB71
:1092700021E79968DAF808208A4213D062465AE753
:10928000039E0320207596F84400C8B1032840F0DF
:10929000E080B14619F8380FE0B3032840F0F880B9
:1092A000306B52E0D968DAF80C208A4262467FF4CB
:1092B00042AF059C01204FF0000B89F8000052E7F7
:1092C000F06B0078142880F0B6804DF6E8617422C7
:1092D000C2F2000110FB0210B0F86010012953D156
:1092E000B0F86250142D80F0AE80A046346C02F0CD
:1092F000FAFA4EF6341105EB4500C2F20001B14610
:1093000001EB80010020B46144467163F66109F805
:10931000380F00E0716B0022304606F1180540F866
:10932000202F06F11003F162C6E90015C6E90230EC
:109330000B68002B40F096804CF254420223C0F29E
:109340000202C1E900368A60306306A9FEF705FE15
:1093500018B1032089F8000012E0F06A0021D6E974
:109360000458F16200B10160306A012803D1D6E9E6
:109370000901C96888470120032D89F8000004D13C
:10938000032586F8445003E00025012086F84400B8
:10939000032D02D10198046003E0022D2DD0042D8D
:1093A00004D10299032081F88E0040E001F0D5FA43
:1093B00040F20F00C0F2000001F045FA40F2430015
:1093C0000221C0F20000ADF8240009A801F0B9FBA9
:1093D00055B1012001218DF8240009A801F0B1FB4D
:1093E000404602F027F906E0002001218DF8240014
:1093F00009A801F0A6FB01F008FB029C04F138006B
:1094000000F052F894F88D0002F011FB012084F86E
:109410008E0004F10800BFF35F8F50E8001F21F0B9
:10942000010140E80012002AF7D1BFF35F8F0FB0AF
:10943000BDE8000FF0BD4CF6B032C0F202021421BC
:1094400000F01CFCFEDE4CF688422846C0F2020208
:10945000F5E74CF200404CF23442C0F20200C0F298
:1094600002021DE001204CF298410C904CF2904019
:10947000C0F20200C0F202010B904CF2F470C0F294
:1094800002000E920D9009A8099200F0D7FBFEDEB3
:109490004CF200404CF24442C0F20200C0F2020220
:1094A000232101F03FF8FEDE90F84410032904BFA9
:1094B00090F83810032900D07047C16A0022C262B8
:1094C00001B10A60016A012918BF7047D0E909108B
:1094D000C26808461047D4D4F0B503AF2DE9000F99
:1094E00099B080464CF69010C0F2020008F12001BD
:1094F000CDE9068098F8D4000091D8B1C2461AF898
:10950000A40FAAF17404002800F0A880032873D1E6
:10951000454615F8850F002851D0032875D1C3465C
:1095200005951BF8640F00284DD0032876D1D8F894
:109530005800DCE1D8E933230126C8E92B234DF696
:109540005832B8F8AA10C2F20002B8F8A800131DE9
:10955000D3E84F5FD5BBC3E8456F002DF8D1BFF30B
:109560005F8FC8F8B4205180108001F0F6F940F206
:109570000B00C0F2000001F066F901F046FA4CF26F
:1095800042620421C0F202024CF23166C8E9312184
:1095900040F20011C0F201010020C8F82A104FF477
:1095A000C8711123C0F2020688F82800A8F8240028
:1095B000C8E92F63C8F8201088F8B8003AE0D8F856
:1095C0006CB004945AE0D8F85C1075E101204CF2BC
:1095D000F471BFF32F8F0B904CF22C30C0F20201CC
:1095E000C0F202000C914CF290310A900020C0F2BF
:1095F00002010D90089037E24CF200404CF22442F8
:10960000C0F20200C0F2020210E04CF200404CF244
:10961000F032C0F20200C0F2020207E04CF2004059
:109620004CF2E042C0F20200C0F20202232100F03C
:1096300079FFFEDED8F8B00008F19001C8F8880084
:10964000C2460098C8F88C0008F1B80090E87C0089
:1096500000207CC10AF8A40FAAF17404D8E9220BF7
:1096600008F17001C8E91A0B08F19000049490E821
:109670007C0000207CC1454605F8850F012044464A
:1096800004F8840FA4F1100CCDF80CA014F8143CCD
:1096900014F813AC9CE8061054F8040C0595DFE8A8
:1096A00003F0033A131724000B9008460126CDE976
:1096B000092C0291002008914FF0000A8DF83860C3
:1096C0000125CDF804C03CE08DF831A0022525E04D
:1096D00000200625CDE909200A46029101260891BD
:1096E00000218DF8385001912BE0CDE908C0072505
:1096F000B8F872008DF837200022CDF83310002121
:10970000ADF831000120019161468DF838500A9280
:10971000CDF808C014E003258DF831A00D9100218B
:109720004FF0000AB8F8720001910021ADF8320044
:1097300001208DF83850CDF828A0CDF820A0029156
:1097400000268DF830000FA84FF0000918218DF881
:109750003A908DF839A002F07EFC08A8BBF80610FC
:1097600011309BF80D209BF80C30002E18BF002004
:1097700010909BF80B000129BBF804608DF8510094
:109780008DF83C509BF809508DF85230DBF8000002
:109790009BF8083011904FF001008DF8502098BFD1
:1097A0000146002E08BF3146ADF84810012D98BF84
:1097B0000546002B08BF1D460FA98DF84A501731EA
:1097C000029D5FFA89F2B9F1200600FA02F32AFA43
:1097D00009F258BF0022D2074FEAD90209F1010964
:1097E0008E5C14BF334326EA0303B9F1040F8B5494
:1097F000E7D1DDF80CA00020019B2DB109984FF6B0
:10980000FE71884200F2158100212BB10B994FF6B1
:10981000FE72914200F20D814DF6C02EADF860103F
:10982000C2F2000EADF85800159515A917930FAAAE
:10983000704640F23B0572DFC0F2000598B99BF913
:109840000A2001209EF8001040F23C0577DFC0F2AC
:10985000000540B99EF80000012173DF40F23D058C
:10986000C0F20005C8B102F08DF8814601F075F82C
:10987000284600F0E8FF484601F0DCFE01F0C5F89C
:109880002046FEF728FE059801240470049800F095
:10989000EFF802268AF800407EE002F024F800206B
:1098A000C3464EF638010BF8640FC2F20001049C67
:1098B0004BF8081C4BF8044C0022404640F8482F57
:1098C000A0F1080600F11803C16040E9061640E95E
:1098D00004300B68002B40F0B5804CF2F0420223BC
:1098E000C0F20202C1E900348A60C8F8580006A933
:1098F000FEF733FB002840F08E80D8F8540000219A
:10990000D8E91069C8F8541000B10160D8F84800CF
:10991000012803D1D8E91301C96888470125042E1D
:109920008BF800507AD000208DF8200008A8FEF7B0
:10993000D2FD05980570204600F09AF8032E8AF8AB
:10994000005029D14DF63841D8F8B420C2F20001B8
:1099500051E8020F50B90320BFF35F8F41E80203C3
:10996000002B45D051E8023F002BF7D0BFF32F8FDB
:109970004846BFF35F8F02F05AF800F0EEFF40F266
:109980000C00C0F2000000F05EFF00F08FF801F064
:109990003CF800F066FFFEDE00F0DFFF40F20D0055
:1099A000C0F2000000F04FFF40F239000221C0F287
:1099B0000000ADF8200008A801F0C3F81EB1012E88
:1099C00009D1012000E000208DF8200008A8012125
:1099D00001F0B7F809E0022001218DF8200008A865
:1099E00001F0AFF8484601F025FE01F00EF821E63F
:1099F000BFF35F8FC1F88820D8F8AC0049F20D02A0
:109A00000023C0F2020281F88E3081F88C904A6106
:109A100001F0D7F90EE603208BF80000032088F848
:109A2000D40088F8A40088F8850019B0BDE8000FBC
:109A3000F0BD00F092FF40F23A00C0F2000000F0EA
:109A400002FFA4E701204CF204510B904CF290402D
:109A5000C0F20200C0F202010A904CF2F470C0F2AF
:109A600002000D920C90089208A800F0E7F8FEDEC4
:109A7000D0B502AF044690F85500032818BFD0BDFA
:109A800094F8340003280BD1606A0021616200B1B0
:109A90000160A069012803D1D4E90701C96888479A
:109AA00004F15400BDE8D040FEF715BD80B56F4607
:109AB00082B040F216000221C0F2000027F8020C2A
:109AC000B81E01F03EF802B080BD704700F000B84B
:109AD000F0B503AF2DE9000F83B0D0E9009A04463A
:109AE0000120C9F800000D88102D10D000211B2D79
:109AF00033D0262D31D000F030FF40F23F00C0F2CD
:109B0000000000F0A0FE284601F04FFD7AE0C87B7F
:109B10000E46B1F804B002F083F8D6F80B30804658
:109B2000D6E904C1B2680026CDF807304DF6E863E7
:109B300001920022C2F200039D1895F8660018B940
:109B4000B5F86000012816D174320136B2F5116FF4
:109B5000F2D11321584676DF0121F2B20323CAE97C
:109B60000012E068C9F8003003B0BDE8000FBDE89E
:109B7000F040FEF76DBA05F108006960582143F81E
:109B800002C002F068FA0120019985F866001723E7
:109B9000A5F86000002085F8700040F21B10BBF1B2
:109BA000140FDDF80720C5F86710A5F86430A5F894
:109BB00062B085F87180A5F86E00C5F86A2010D2F1
:109BC0004EF2F870C2F2000010F81B1091B900EBD1
:109BD0004B00012146700170584601F0DAFF032165
:109BE000BBE74CF6C0325846C0F20202142100F026
:109BF00045F8FEDE00F0B1FE40F22B00C0F200009E
:109C000000F021FE00F001FF00F02BFEFEDE4DF61D
:109C1000C860C2F200000168406808474DF6C060A5
:109C2000C2F200000168406808474DF6B860C2F211
:109C300000000168406808470068FEE780B56F468D
:109C400086B0CDE903014CF2D860C0F202000122D7
:109C500002904CF2F470C0F202008DF814200190D2
:109C600001A802F044F9FEDE70474EF2AB704FF6E9
:109C70000C41C4F6BE50CCF2A811704780B56F46B7
:109C80008CB0CDE90001022005904CF28C61079068
:109C900008A806900020C0F20201029049F6BD40DB
:109CA0000491C0F202006946CDE9090111460B900A
:109CB00001A8089002A8FFF7C1FFFEDEF0B503AFD0
:109CC0002DE9000F8FB0056842F210708B46854277
:109CD0004CF2E860C0F2020042D341F2597E4EF2EB
:109CE000FF06A7F1430A00224FF69C7CCDF2B71E77
:109CF0004DF6F00841F27B49C0F2F556CDF810B0B0
:109D0000A5FB0E140AEB020B043AB5424FEA54319C
:109D100001FB08540D46A3B24FEA930303FB09F37A
:109D20004FEA534303FB0C4430F81330ABF82330B5
:109D3000A4B230F81440ABF82540E1D8DDF810B0FB
:109D400027320D46632D0ED829460A291ED330F836
:109D50001100A2F10209A7F1430121F809001DE059
:109D60002722632DF0D9A9B241F27B438908023A38
:109D700059436FF06303A7F14306490C11FB0353EA
:109D80009BB230F81330B3520A29E0D2A2F1010994
:109D900001F13000A7F1430101F80900DBF81800D8
:109DA0004CF2F473A7F14301DBF8082001EB09063C
:109DB000C0F20203410710F0010A4FF02B0803EA3A
:109DC000E174C9F1270308BF4FF48818C2B1DBF86A
:109DD0000C5003EB0A018D4212D90007CDE903367E
:109DE00025D49BF82000691AA246032808BF012049
:109DF000820746D0012841D100200290084641E068
:109E000099462346DBE9004542462946204600F0B4
:109E10007EF808B1012405E0EB68204631464A4649
:109E20009847044620460FB0BDE8000FF0BDDBE9BF
:109E300000262346DBF81C0001249BF8201001902B
:109E4000302000913146CBF81C0010460292424669
:109E50008BF8204000F05BF80028E3D109EB050007
:109E6000029DA0EB0A00A0F12604013C3AD0326921
:109E70002846302190470028F7D0CBE74808013129
:109E800049080291DBE90094461CDBF81C50013EB6
:109E900006D022694846294690470028F7D0B9E7FE
:109EA000B5F5881FB6D0484621464246534600F0D5
:109EB0002EF80028AED1E3684846DDE90321984733
:109EC0000028A7D1029E4FF00008464519D022690C
:109ED00048462946904708F101080028F5D0A8F126
:109EE00001000FE0F3682846DDE9032198470028C8
:109EF00090D1009800248BF820000198CBF81C002A
:109F000090E730460024B04238BF01248AE7F0B51C
:109F100003AF4DF804BD1C460E460546B2F5881F3A
:109F200008D0336928461146984718B101205DF8DA
:109F300004BBF0BD44B1F3682846214600225DF819
:109F400004BBBDE8F040184700205DF804BBF0BD3D
:109F500080B56F4600F001F8FEDE80B56F468CB02C
:109F60000121CDE9000102204CF2E4710590079037
:109F700008A8C0F20201069000200491029049F660
:109F8000BD4001A9C0F202000B90CDE9090168466D
:109F90004CF6EC01089002A8C0F20201FFF74EFE59
:109FA000FEDEF0B503AF2DE9000F83B08846D0F890
:109FB00008C00169BCF1010F18BF012909D10129AD
:109FC00076D1416908EB020E4FF0000B43464C1C62
:109FD0000CE0D0E90010E1E046EA89158B1CABEB00
:109FE0000101B5F5881F01EB030B61D0013C194657
:109FF00028D071455CD00B4613F9016BB6F1FF3FD9
:10A00000F5B2ECDC4E7805F01F09DF2D06F03F06B7
:10A01000E2D98B78F02D03F03F0343EA86160DD387
:10A02000CB7809F0070503F03F0343EA861343EAC0
:10A030008545B5F5881F3BD00B1DD0E746EA0935AD
:10A04000CB1CCCE7714533D091F90030B3F1FF3F21
:10A0500004DCDBB2E02B28BFF02B15D2BBF1000FE4
:10A0600009D0934506D218F90B1011F1400F02DA0E
:10A07000002101E0FCD1414600290CBF93468846EF
:10A08000BCF1000F18D186E04E7803F007038D78FD
:10A09000C97806F03F0605F03F0501F03F01AD012C
:10A0A00045EA0636314441EA8341B1F5881FD5D1EE
:10A0B0009346BCF1000F6ED0D0F80CE0BBF1100F4E
:10A0C0000CD2BBF1000F62D0ABF101010BF0030C1D
:10A0D00003296CD24FF0000A41468BE008F10301DE
:10A0E0005A4621F00301A1EB0806B3450ED3042E16
:10A0F0000CD8A2EB060BBBF1040F07D30BF0030A3D
:10A100004145029240F0D380002217E122F003067D
:10A11000A8F10403A6F1040C4FF0000A934613F9CA
:10A12000045F93F9034015F1410FC8BF0AF1010A1A
:10A1300093F9015093F9021015F1410FC8BF0AF1CC
:10A14000010A11F1410FC8BF0AF1010A14F1410FD0
:10A15000C8BF0AF1010A043EE1D11BF0030667D033
:10A1600093F9041011F1410FC8BF0AF1010A012E41
:10A170005ED008EB0C0191F9053013F1410FC8BF17
:10A180000AF1010A022E53D091F906104BE04FF06C
:10A19000000AD6454ED801685A464068C36808464A
:10A1A000414603B0BDE8000FBDE8F04018472BF072
:10A1B00003064FF0000A414691F9022091F903503D
:10A1C00011F9044B11F9033C14F1410FC8BF0AF116
:10A1D000010A13F1410FC8BF0AF1010A12F1410F40
:10A1E000C8BF0AF1010A15F1410FC8BF0AF1010AFF
:10A1F000043EE1D1BCF1000F1AD091F9002012F118
:10A20000410FC8BF0AF1010ABCF1010F10D091F94A
:10A21000012012F1410FC8BF0AF1010ABCF1020F7F
:10A2200006D091F9021011F1410FC8BF0AF1010ADD
:10A23000D645B0D990F82020D11E18BF11468A0704
:10A24000AEEB0A02DA4605D0012905D14FF000092C
:10A25000114605E0914603E0510801324FEA5209E8
:10A26000D0E900B54E1CC469013E06D02A695846A3
:10A27000214690470028F7D008E0B4F5881F05D0A4
:10A28000EB68584641465246984720B1012003B03A
:10A29000BDE8000FF0BD0026B14512D02A6958462E
:10A2A0002146904701360028F6D0711E0AE06FEA79
:10A2B0000802114406F00305032908D20022414692
:10A2C00025E049460020494538BF0120DFE70095D9
:10A2D00026F003050022414691F9023091F903402E
:10A2E00011F904CB11F9039C1CF1410FC8BF0132D5
:10A2F00019F1410FC8BF013213F1410FC8BF01323C
:10A3000014F1410FC8BF0132043DE5D1009DADB14C
:10A3100091F9003013F1410FC8BF0132012D0DD06A
:10A3200091F9013013F1410FC8BF0132022D05D060
:10A3300091F9021011F1410FC8BF013208EB060577
:10A34000CDF800804FEA9B080021BAF1000FCDF84C
:10A3500004E01AD02BF00303EC1894F9003013F149
:10A36000410FC8BF0121BAF1010F0ED094F901309D
:10A3700013F1410FC8BF0131BAF1020F05D094F9B2
:10A38000023013F1410FC8BF013101EB020A0FE0A7
:10A390003FFA8CF13FFA9CF21144A8EB0E0809EB4E
:10A3A0008E051EF0030401EB01410AEB114A40D176
:10A3B000B8F1000F3AD0B8F1C00FC64628BF4FF031
:10A3C000C00E1EF0FC01A9464FF0000C05EB810BFE
:10A3D000DED04C46002C1FBFD4E90053D4E9026202
:10A3E000E943C9091FBF41EA951121F0FE316144DB
:10A3F000DD431FBFED0945EA931323F0FE331944F3
:10A400001FBFF343DB0943EA961323F0FE331FBF5C
:10A410001944D343DB0943EA92121FBF22F0FE32F4
:10A4200002EB010C10345C45D4D1B1E7DDF80080BB
:10A4300072E0B9F1000F0AD0611E21F04042511CB8
:10A44000032A01F0030C07D24FF0000E31E04FF069
:10A45000000EDDF8008056E021F003014FF0000E01
:10A46000BBE86C0004396FEA02044FEAD41444EAF2
:10A4700092126FEA030422F0FE324FEAD41444EA47
:10A480009313724423F0FE331A446FEA05034FEA34
:10A49000D31343EA951323F0FE331A446FEA0603FD
:10A4A0004FEAD31343EA961323F0FE3303EB020E75
:10A4B000D6D1DDF80080BCF1000F24D0DBF800100D
:10A4C000BCF1010F6FEA01024FEAD21242EA911188
:10A4D00021F0FE318E4416D0DBF80410BCF1020FDF
:10A4E0006FEA01024FEAD21242EA911121F0FE31E5
:10A4F0008E4408D0DBF80810CA43D20942EA911111
:10A5000021F0FE318E443FFA8EF13FFA9EF2114463
:10A5100001EB01410AEB114ADDE901EBD6453FF6BB
:10A5200089AE38E680B56F4688B0012394464CF278
:10A53000F472039306ABCDE9060102930023C0F247
:10A54000020268466146059304920093FFF776FB8A
:10A55000FEDE0B46D0E900121846FFF722BDF0B52B
:10A5600003AF2DE9000F8BB093460322DBF800A068
:10A570008DF82820202209920022BAF1000F0892BB
:10A580000692CDE90312029068D0DBF8040000289F
:10A5900000F08B80DBF8089041010138002420F0A6
:10A5A00078404FF0000801300191009009EB08005D
:10A5B000426842B1DDE9020359F80810DB689847A8
:10A5C000002840F085800AEB8800DBF81010D0E905
:10A5D0000525C368067F08920AEB040209958DF8E9
:10A5E0002860126973B1012B08D101EBC20249F650
:10A5F0003946C0F202065368B34201D0002302E09C
:10A60000126812680123CDE90432D0E9012072B149
:10A61000012A08D101EBC00049F63943C0F2020318
:10A6200042689A4201D0002202E0006800680122DC
:10A630005AF80430079051F8330001EBC3014B681E
:10A6400002A906929847002842D10198203408F1C7
:10A650000808A042AAD1DDF8009028E0DBF8140039
:10A6600018B3DBF81010C4000138DBF8082020F024
:10A6700060400E1D151D00F101090DF108082A6842
:10A6800032B1DDE9020355F8041CDB689847F8B9DC
:10A6900056F8040C414632689047C8B9083C06F1A8
:10A6A000080605F10805EAD101E04FF00009DBF8E2
:10A6B0000C0081450ED2DBF808204E46DDE9020190
:10A6C000CB6852F8391002EBC9025268984708B1BA
:10A6D000012000E000200BB0BDE8000FF0BD80B508
:10A6E0006F4600F001F8FEDE80B56F466DE90201AD
:10A6F0006846114600F001F8FEDE80B56F4688B06E
:10A7000001224CF60C030392C0F20203059206AA42
:10A710000492002200924AF25352C0F202020293C3
:10A72000CDE906026846FFF789FAFEDEF0B503AF11
:10A730002DE9000B86B0D0F800E06A46D1E900C1EF
:10A7400013469EE8710383E871036046FFF707FF35
:10A7500006B0BDE8000BF0BD00680B46D0E9001262
:10A760001846FFF71EBCFEE77047D0E90020C3681B
:10A770001046184780B56F460846114600F0E1F9CB
:10A78000002080BD80B56F4682B0002080290190F6
:10A7900003D201228DF8041036E0B1F5006F0BD220
:10A7A0000222084662F39F108DF80500C02040EA9F
:10A7B00091108DF8040027E002200A4660F39F12F2
:10A7C000B1F5803F0DD28DF806208A0960F39F1203
:10A7D000E0208DF8052040EA11308DF804000322B6
:10A7E00012E08DF807208A0960F39F128DF8062089
:10A7F0000A0B60F39F12880C1E218DF8052061F36F
:10A80000DF008DF80400042201A8114600F099F938
:10A81000002002B080BDF0B503AF4DF804BD88B094
:10A82000006802AA019091E8785010464CF2F47149
:10A83000C0F2020180E8785001A8FFF790FE08B04E
:10A840005DF804BBF0BD80B56F4682B027F8020CFE
:10A85000B81E022100F075F900F010FE02B080BDB4
:10A86000704780B56F464CF615004CF67C02C0F27E
:10A870000200C0F202020E21FFF754FEFEDEF0B528
:10A8800003AF2DE9000B3AB3044688460069E1683E
:10A89000BFF35F8F884202D9CB43C51806E000287A
:10A8A00012BFC1F5806540F2FF30451AA5B1AA423A
:10A8B00038BF15466E18B6F5806F0FD96068C1F5C0
:10A8C0008069084441464A4601F073FB606808EB22
:10A8D0000901A5EB090205E000250AE060682A46A7
:10A8E0000844414601F065FBBFF35F8F6FF39F267D
:10A8F000E6602846BDE8000BF0BDF0B503AF2DE9DA
:10A90000000B8846C1681446B2F5806F28BF4FF42B
:10A9100080640E190546B6F5806FBFF35F8F0DD9C1
:10A920006868C1F58069084441464A4601F041FB28
:10A93000686808EB0901A4EB090203E06868224695
:10A940000844414601F035FBBFF35F8F6FF39F264C
:10A95000EE602046BDE8000BF0BDF0B503AF4DF84A
:10A9600004BD86B000F0E2FD4DF6CB42C2F200021B
:10A97000117899BB01214DF6CC4311704DF6CF42B1
:10A98000C2F20002C2F2000316781870FEB94DF64A
:10A99000502500201170C2F200058DF800004AF623
:10A9A000FB06E86A4AF67F01C0F202066C4600F038
:10A9B0000300C0F20201022808BF0E4605F118008C
:10A9C00021460122B0470028F8D0012803D106B063
:10A9D0005DF804BBF0BDFFF7BBFAFEDE01204CF2D0
:10A9E000F47103904CF61C10C0F20200C0F2020198
:10A9F0000290002004914CF680110590C0F20201F3
:10AA000000906846FFF71AF9FEDEF0B503AF2DE9B6
:10AA1000000F81B04DF6CD494DF65026C2F2000927
:10AA20004AF67F0A99F800004AF6FB054DF6CE4833
:10AA3000C2F20006C0F2020AC0F20205C2F2000829
:10AA4000A0B307281BD24FF0FF3298F8001002FA8B
:10AA500000F0A7F11D0B08432C4600F07F0007F81B
:10AA60001D0CF06A00F00300022808BF544606F1EE
:10AA7000180059460122A0470028F8D014E0793088
:10AA8000A7F11E0B40F0800007F81E0CF06A2C4660
:10AA900000F00300022808BF544606F1180059468A
:10AAA0000122A0470028F8D0012847D10020A7F1B3
:10AAB0001F0407F81F0CF06A00F00300022808BF0B
:10AAC000554606F1180021460122A8470028F8D073
:10AAD000012833D14DF6CB410020C2F2000189F8A4
:10AAE000000088F8000008704DF6CC41C2F2000169
:10AAF0000978F9B94DF6D062EFF31081C2F2000285
:10AB000072B610704DF6D460C2F2000040F2FC62E2
:10AB10000068CFF6FF5210404EF20012CEF2000253
:10AB200010604DF6D860C2F2000000685060C8079F
:10AB300000D162B601B0BDE8000FF0BDFFF708FA22
:10AB4000FEDEF0B503AF2DE9000F85B0002900F05F
:10AB5000EF8000EB010902464DF6CD404DF6502A3C
:10AB6000C2F20000A7F1210B90F80080A7F11E04AB
:10AB7000C2F2000ACDF8049012F8010B5FFA88F1D6
:10AB8000072924D200286BD007F8210C4AF6FB05D0
:10AB9000DAF82C001646C0F2020500F00300022885
:10ABA0004AF67F00C0F2020008BF05460AF118000D
:10ABB00059460122A8470028F8D0012840F0BC805F
:10ABC0004DF6CE403246C2F20000007852E0002836
:10ABD00002927BD007F81E0C4AF6FB09DAF82C002B
:10ABE000C0F2020900F0030002284AF67F00C0F21A
:10ABF000020008BF81460AF11805214601222846B5
:10AC0000C8470028F7D0012840F096804DF6CD4087
:10AC100008F10108DDE90192C2F2000080F800802D
:10AC20005FFA88F0862840F08080FF204AF6FB0615
:10AC300007F81D0CA7F11D08DAF82C00C0F2020677
:10AC400000F0030002284AF67F00C0F2020008BFAD
:10AC50000646284641460122B0470028F9D053E075
:10AC60004DF6CE460123C2F2000603FA01F1307818
:10AC7000084330704DF6CD4108F10108C2F20001E1
:10AC800081F800805FFA88F107294ED101064CD087
:10AC90008DF810004AF6FB05DAF82C0004AE904659
:10ACA000C0F2020500F0030002284AF67F00C0F25D
:10ACB000020008BF05460AF1180031460122A847E4
:10ACC0000028F8D0012837D1424620E008F1790069
:10ACD0004AF6FB0540F0800007F81F0CDAF82C005C
:10ACE000A7F11F06C0F2020500F0030002284AF691
:10ACF0007F00C0F2020008BF05460AF11800314685
:10AD00000122A8470028F8D0012815D1029A4DF653
:10AD1000CE404FF00008C2F2000080F800804DF6EF
:10AD2000CD40C2F2000080F800804A457FF424AF95
:10AD300005B0BDE8000FF0BDFFF70AF9FEDE4CF6E6
:10AD40009011C0F20201704700F001B87047B0B531
:10AD500002AF054600F0EAFB0446A86800F00301D4
:10AD600001290AD140F00200A86029690868E8605A
:10AD70000D6010B94868C96888470CBB4DF6D061B2
:10AD8000EFF310800022C2F2000172B60A704DF695
:10AD9000D461C2F2000140F2FC620968CFF6FF52B2
:10ADA000C00701EA02014EF20012CEF20002116069
:10ADB0004DF6D861C2F200010968516000D162B657
:10ADC000B0BDF0B503AF4DF804BD0E4605460861B1
:10ADD00000F0ACFB04462868F0602E6010B968688B
:10ADE000E96888470CBB4DF6D061EFF31080002274
:10ADF000C2F2000172B60A704DF6D461C2F20001CF
:10AE000040F2FC620968CFF6FF52C00701EA020176
:10AE10004EF20012CEF2000211604DF6D861C2F27D
:10AE200000010968516000D162B65DF804BBF0BD55
:10AE3000F0B503AF4DF8048D04464DF68820C2F2FC
:10AE4000000090F83450BFF35F8FEBB2022B27D88D
:10AE500000F13402D2E84F1F994207D16B1CBFF3B7
:10AE60005F8FC2E8463F1EB9012202E0BFF32F8F79
:10AE700000220D46002ABFF35F8FE6D04AF6BF6876
:10AE80002846C0F2020800224146002600F05BF886
:10AE90002574C4E90066C4E902685DF8048BF0BD5E
:10AEA000FFF75BFD40F21500C0F20000FFF7CBFC9E
:10AEB00000F06CFBFFF7A9FDFFF7D3FCFEDE80B5C9
:10AEC0006F4640BF80BDD0B502AFD2F804E04AF66D
:10AED0003F53C0F20203DEF800C09C450BD1DEF800
:10AEE00004304AF6495CC0F2020C634504BFDEF848
:10AEF000083063450CD0FFF730FD40F21400C0F27B
:10AF00000000FFF7A0FCFFF780FDFFF7AAFCFEDEC4
:10AF1000DEF80CC04AF64D53C0F202039C45EAD15C
:10AF2000D2F800C08E460446DCE900328A423CBFBB
:10AF300096461C46834238BF18468A4218BF2046B0
:10AF4000CCE9000ED0BDF0B503AF4DF804BD0D4601
:10AF50004DF68821C0B2C2F20001144601EB001682
:10AF600000F0E4FAC6E9025408BB4DF6D061EFF3F5
:10AF700010800022C2F2000172B60A704DF6D46150
:10AF8000C2F2000140F2FC620968CFF6FF52C0072E
:10AF900001EA02014EF20012CEF2000211604DF6FB
:10AFA000D861C2F200010968516000D162B65DF853
:10AFB00004BBF0BDF0B503AF2DE9000B4DF68825BD
:10AFC000C6B2984691463401C2F2000500F0AEFACE
:10AFD00005EB061345F8049041F2043CC3F80480E5
:10AFE000C4F2010C296BDCF8002201F0010582EAB1
:10AFF000C5524D0A12EBC15145F10002B1EB0905F2
:10B0000072EB080529D2042E61D2CB1C42F1000557
:10B01000A8451C4688BF4C46994588BF4B46A84565
:10B0200018BF23460CEB860523F07F43C5F83C325E
:10B0300006F1100303F01F03012606FA03F3B9EB30
:10B04000010668EB0205B6F5400675F1000634BF4F
:10B05000CCF80030CCF804300BE01036012506F0B7
:10B060001F0605FA06F6CCF804604FF0FF36C3E978
:10B07000006608BB4DF6D063EFF310800026C2F2E5
:10B08000000372B61E704DF6D463C2F2000340F2A4
:10B09000FC661B68CFF6FF56C00703EA06034EF2B4
:10B0A0000016CEF2000633604DF6D863C2F20003FC
:10B0B0001B68736000D162B6B1EB09014FF000006C
:10B0C00072EB080138BF0120BDE8000BF0BD4CF663
:10B0D00004223046C0F202020421FEF7CFFDFEDE5C
:10B0E000F0B503AF2DE9000F81B041F20415C4F2B1
:10B0F00001052868012803D10020286000F056F8D7
:10B10000A86C012803D10020A86400F04FF84DF688
:10B1100088204FF00008C2F2000000F108064FF04E
:10B12000FF3B4FF0000905F13C0050F829100129C0
:10B1300032D140F829804FF4803000FA09FA00F04B
:10B14000F5F9C5F804A20446D6E9001046E902BBA9
:10B1500088470CBB4DF6D061EFF3108040F2FC62E3
:10B16000C2F2000172B681F800804DF6D461C2F2DD
:10B170000001CFF6FF520968C00701EA02014EF252
:10B180000012CEF2000211604DF6D861C2F2000149
:10B190000968516000D162B609F101091036B9F1B0
:10B1A000030FC0D101B0BDE8000FF0BDF0B503AF93
:10B1B0004DF804BD00F0BAF94DF68822C2F2000243
:10B1C00052E80C1F013142E80C13002BF8D14A0A57
:10B1D00041F204344FF4400313EBC15C4DF6882177
:10B1E00042F100020023C2F200014FF4803EC4F29B
:10B1F0000104D1E900561031B5EB0C0576EB0205E0
:10B200003CBF0EFA03F525600133032BF1D108BBD7
:10B210004DF6D061EFF310800022C2F2000172B649
:10B220000A704DF6D461C2F2000140F2FC62096876
:10B23000CFF6FF52C00701EA02014EF20012CEF231
:10B24000000211604DF6D861C2F200010968516038
:10B2500000D162B65DF804BBF0BDF0B503AF2DE9D7
:10B26000000F83B04DF6D04446F200150026C2F21E
:10B270000004C4F200054FF0010855F8260030B173
:10B2800008FA06F0C5F80802204600F0B8F80136C2
:10B290000834082EF1D1E86F002843D040F2003086
:10B2A0004FF00009C5F87C904DF61055C5F200002E
:10B2B0004FF0010B02904FF0A040C2F20005019048
:10B2C00001A850F82940D4F82085B8F1000F22D009
:10B2D00098FAA8F04FEA4916B0FA80F0C2461F2843
:10B2E00024D804EB8001D1F8002722F44032C1F8C1
:10B2F0000027811930291FD20BFA00F02AEA000A30
:10B3000005EBC10000F07BF89AFAAAF0BAF1000F41
:10B31000B0FA80F0E3D15FEAC9704FF00109C4F8D8
:10B320002085CDD003B0BDE8000FF0BD4CF67422EF
:10B330002021C0F2020205E04CF684220846C0F249
:10B3400002023021FEF79AFCFEDEF0B503AF2DE9D4
:10B35000000715468A46064600F0E8F8D6E900944C
:10B360008046002070606CB1D14502BF286821681A
:10B37000814207D168686168814202BFA868A168FC
:10B38000814236D02968504688470246D6E90003F4
:10B39000C6E900210BB1D968884714B1E168484675
:10B3A0008847B8F1000F21D14DF6D061EFF310803E
:10B3B0000022C2F2000172B60A704DF6D461C2F2E8
:10B3C000000140F2FC620968CFF6FF52C00701EAB3
:10B3D00002014EF20012CEF2000211604DF6D86169
:10B3E000C2F200010968516000D162B6BDE80007F1
:10B3F000F0BDE868E1688142C4D17460D1E7F0B57E
:10B4000003AF4DF8048D054600F090F8D5E90064CF
:10B410008046002068604CB1A16830468847D5E975
:10B420000001C5E9006409B1C9688847B8F1000F97
:10B4300021D14DF6D061EFF310800022C2F200015D
:10B4400072B60A704DF6D461C2F2000140F2FC629D
:10B450000968CFF6FF52C00701EA02014EF200125E
:10B46000CEF2000211604DF6D861C2F20001096807
:10B47000516000D162B65DF8048BF0BD80B56F46B7
:10B4800082B04DF6882041F20451C2F20000C4F2AD
:10B490000101006B096800F0010281EAC25143F624
:10B4A000095211EBC0514FEA502040F10000A1FBBE
:10B4B000021300FB0230490A41EAC051400A0091E0
:10B4C000082101906846FFF73CFB02B080BD80B5C3
:10B4D0006F4600F02BF84DF6E461C2F200014FF028
:10B4E00001020A7008BB4DF6D061EFF31080002214
:10B4F000C2F2000172B60A704DF6D461C2F20001C8
:10B5000040F2FC620968CFF6FF52C00701EA02016F
:10B510004EF20012CEF2000211604DF6D861C2F276
:10B5200000010968516000D162B680BD80B56F46E8
:10B530004DF6D061C2F200010878BFF35F8F08BBFF
:10B54000EFF3108201234DF6D46C72B60B704EF2FD
:10B550008013C2F2000CCEF200031968CCF8001080
:10B560004DF6D86CC2F2000C5968CCF8001040F2CD
:10B57000FC61CFF6FF5119604FF0FF315960D107E0
:10B5800000D162B6002818BF012080BD80B56F468B
:10B5900082B040F201000221C0F2000027F8020C44
:10B5A000B81EFFF7CEFA02B080BDD0B502AF82B0B0
:10B5B000044640F20500C0F20000022127F80E0CFC
:10B5C000A7F10E00FFF7BDFA01A804210194FFF7CF
:10B5D000B8FA02B0D0BDD0B502AF82B0044640F296
:10B5E0000300C0F200000221ADF8040001A8FFF73B
:10B5F000A8FAA7F10900012107F8094CFFF7A1FA01
:10B6000002B0D0BDD0B502AF82B0044640F2040013
:10B61000C0F200000221ADF8040001A8FFF791FA82
:10B62000A7F10A00022127F80A4CFFF78AFA02B0B4
:10B63000D0BDD4D4D0B502AF82B0044640F22400CD
:10B64000C0F200000221ADF8040001A8FFF779FA6A
:10B65000B4F5005F15DBB4F5405F37DDB4F5485F46
:10B6600042DBB4F54C5F80F24C80A4F54850DFE833
:10B6700000F0035F64696E734CF60450C0F2020080
:10B6800027E1B4F5805F80F24780611C4CF695207D
:10B69000C0F20200DFE811F015001D0165006A002C
:10B6A0006F00740079007E00830088008D00920096
:10B6B00097009C00A100A600AB00B000B500BA0046
:10B6C000BF004CF69420C0F2020002E1A4F5005045
:10B6D000DFE800F005A6ABB0B5BABFC4C9CE4CF6E2
:10B6E0001450C0F20200F4E043F20100201ADFE837
:10B6F00000F003C4C9CED3D84CF60A50C0F2020001
:10B70000E7E000F0D380B4F5505F40F0D4804CF611
:10B71000FD40C0F20200DCE000F0D28041F2010006
:10B72000844240F0D2804CF61650C0F20200D0E0C5
:10B730004CF60350C0F20200CBE04CF60250C0F2CF
:10B740000200C6E04CF60150C0F20200C1E04CF627
:10B750000050C0F20200BCE04CF6FF40C0F2020014
:10B76000B7E04CF6FB40C0F20200B2E04CF6FA4003
:10B77000C0F20200ADE04CF6F940C0F20200A8E0D1
:10B780004CF6F840C0F20200A3E04CF6F740C0F2DD
:10B7900002009EE04CF6F640C0F2020099E04CF642
:10B7A000F540C0F2020094E04CF6F440C0F2020012
:10B7B0008FE04CF62250C0F202008AE04CF6215095
:10B7C000C0F2020085E04CF62050C0F2020080E09A
:10B7D0004CF61F50C0F202007BE04CF61E50C0F247
:10B7E000020076E04CF61D50C0F2020071E04CF60B
:10B7F0001C50C0F202006CE04CF61B50C0F202007C
:10B8000067E04CF61A50C0F2020062E04CF61950A4
:10B81000C0F202005DE04CF61850C0F2020058E0A1
:10B820004CF61350C0F2020053E04CF61250C0F236
:10B8300002004EE04CF61150C0F2020049E04CF616
:10B840001050C0F2020044E04CF60F50C0F202006B
:10B850003FE04CF60E50C0F202003AE04CF60D50BC
:10B86000C0F2020035E04CF60C50C0F2020030E0AD
:10B870004CF60B50C0F202002BE04CF60950C0F21F
:10B88000020026E04CF60850C0F2020021E04CF61F
:10B890000750C0F202001CE04CF60650C0F2020055
:10B8A00017E04CF60550C0F2020012E04CF6FE40E4
:10B8B000C0F202000DE04CF6FC40C0F2020008E0CD
:10B8C0004CF61750C0F2020003E04CF61550C0F2DF
:10B8D00002000078012107F8090CA7F10900FFF721
:10B8E00030F902B0D0BD80B56F4686B04EF6045038
:10B8F000CEF20000007808B906B080BD01204CF2FD
:10B90000F47103904CF6BC20C0F20200C0F20201B8
:10B910000290002004914CF614310590C0F202010F
:10B9200000906846FEF78AF9FEDED4D4B0B502AFC7
:10B9300086B00C460546FFF7D6FF29680020DFE8F1
:10B9400001F0080A0208D5E901010A692146904779
:10B95000012006B0B0BD01204CF2F47103904CF60A
:10B960004830C0F20200C0F20201029000200491AF
:10B970004CF650310590C0F2020100906846FEF787
:10B980005DF9FEDE01464FF0FF30B1F5005F13DBDD
:10B99000B1F5405F22DDB1F5485F2ADBB1F54C5FC0
:10B9A00080F23980A1F54852052A88BF7047DFE848
:10B9B00002F0363636363636B1F5805F23DA4A1E67
:10B9C000122A2DD8DFE802F02B2B2B2B2B2B2B2B25
:10B9D0002B2B2B2B2B2B2B2B2B2B2B00A1F50052A6
:10B9E000092A1DD8DFE802F01B1B1B1B1B1B1B1B9E
:10B9F0001B1B43F201028A1A052A11D8DFE802F064
:10BA00000F0F0F0F0F0F1CBF41F20102914206D022
:10BA100041F2020207E018BFB1F5505F01D10846BC
:10BA2000704743F20142914208BF0846704780B513
:10BA30006F46C0B2132821D84DF6E8617422C2F2D5
:10BA4000000110FB021E9EF86600F8B101388EF866
:10BA50006600000618BF80BDBEF86000012804BF64
:10BA60009EF87000002800D080BDBEF8620013214F
:10BA700076DFC0B901208EF8700080BD4CF6B03280
:10BA80001421C0F20202FEF7F9F8FEDEFEF765FFB0
:10BA900040F22900C0F20000FEF7D5FEFEF7B5FF28
:10BAA000FEF7DFFEFEDEFEF758FF40F22500C0F293
:10BAB0000000F1E780B56F46C0B213289FBF4DF676
:10BAC000E861C2F20001742210FB02119EBFB1F8BE
:10BAD0006000B1F8621080BD4CF6B0321421C0F2A3
:10BAE0000202FEF7CBF8FEDE80B56F4681B2142964
:10BAF00029D24EF2F872C2F2000212F8110008B315
:10BB000002EB41014978132922D84DF6E8627423EB
:10BB1000C2F2000211FB032C1CF8663F0133DAB2BB
:10BB20009A4204BF8CF8003080BDFEF716FF40F249
:10BB30002A00C0F20000FEF786FEFEF766FFFEF761
:10BB400090FEFEDE80BD4CF6C032C0F2020203E081
:10BB50004CF6B032C0F2020208461421FEF78EF80D
:10BB6000FEDE80B56F46C0B213289FBF4DF6E86178
:10BB7000C2F20001742210FB02119CBFD1E9020144
:10BB800080BD4CF6B0321421C0F20202FEF776F806
:10BB9000FEDED0B502AF82B0002180B2ADF8041055
:10BBA0006A460091002190DFC0B3FFF7EBFE044628
:10BBB000FEF7D3FE40F23300C0F20000FEF743FE72
:10BBC0002046FFF737FDFEF720FFBDF80200BDF865
:10BBD0000010084311D0FEF7C0FE40F23400C0F25E
:10BBE0000000FEF730FEBDF80000FFF70BFDBDF8CA
:10BBF0000200FFF707FDFEF708FFBDF8040068B17B
:10BC0000FEF7ABFE40F23500C0F20000FEF71BFE6F
:10BC1000BDF80400FFF7F6FCFEF7F7FE02B0D0BD5A
:10BC2000D0B502AF0446C0B2012813D0022804BF29
:10BC30000020D0BDFEF791FE40F23800C0F20000B7
:10BC4000FEF701FE2046FFF7C6FCFEF7DEFEFEF71C
:10BC500008FEFEDE0120D0BDF0B503AF4DF804BDF7
:10BC60004CF63B5140B2C0F202014FF0010C11F80A
:10BC700000E04CF63451C0F20201085C00210023C0
:10BC800020FA03F5DAB2B3F1200658BF00250CFA0A
:10BC900002F421EA0402ED0703F1010318BF44EAAC
:10BCA0000102042B1146EBD100234FF0010C181DAB
:10BCB0002EFA03F4B3F1200558BF0024C0B2E40704
:10BCC0000CFA00F122EA010003F1010318BF41EA76
:10BCD0000200042B0246EAD15DF804BBF0BDF0B5CA
:10BCE00003AF2DE9000B01784578867890F8038042
:10BCF00090F804900846FFF7AFFF04462846FFF788
:10BD0000ABFF01210122D3B2012A01FA03F526EA91
:10BD1000050302F1010208BF45EA0603032A1E4695
:10BD2000F1D14FEA091123F0180241EAC801C0B26B
:10BD30001143E2B242EA002040EA0140BDE8000BB4
:10BD4000F0BD80B56F460C4601280DD0064641F285
:10BD500001001546864211D1FEF7FFFDD5B940F22C
:10BD60005100C0F2000005E0FEF7F7FD40F2500080
:10BD7000C0F20000FEF767FD204615E0FEF7EDFD7E
:10BD800040F25300C0F20000FEF75DFD3046FFF7C1
:10BD90000CFC05E040F25200C0F20000FEF753FD3B
:10BDA0002046FFF702FC2846FFF7FFFBFEF72DFEBB
:10BDB000FEF757FDFEDEB0B502AF4DF65022044649
:10BDC000C2F2000269DF18B1FFF7DCFD042800D1E0
:10BDD000B0BD0546FEF7C1FD40F25400C0F20000C0
:10BDE000FEF731FD2046FFF7E0FB2846FFF722FC77
:10BDF000FEF70BFEFEF735FDFEDE4DF6DC60C2F20F
:10BE00000000FFF7FCBAF0B503AF4DF8048D8EB01B
:10BE1000D1E900454CF2B861EB68C0F20201D0F8FC
:10BE200000800C222046984708B101265AE0D8F835
:10BE3000080028B101904AF22D70C0F2020015E00E
:10BE4000D8E90060C1683046884746F63442C8F6F3
:10BE5000A712514041F6C822CAF6F81250400843D2
:10BE60001AD14AF259700196C0F20200039001A85B
:10BE7000029002A80C9002200B904CF2C860C0F215
:10BE8000020008AA0A9000200126089020462946B0
:10BE90000D96FEF764FB28BBD8F80C0049F6BD41AF
:10BEA000C0F2020100F10C020791CDE9051200F188
:10BEB000080104914AF25351C0F2020108AACDE9E7
:10BEC000020102A90320CDE90B0129460D904CF295
:10BED000A060C0F202000A90002008902046FEF701
:10BEE0003EFB064630460EB05DF8048BF0BD80B5D3
:10BEF0006F468EB0044600F058F84EF61A30C2F283
:10BF000000000178002940D1012505700194FEF759
:10BF100024FD40F25C00C0F20000FEF794FC40F209
:10BF200006000221C0F20000ADF81C0007A8FEF7D1
:10BF300008FE4CF624504CF2F471C0F2020007AA3D
:10BF4000039001A802904AF26B70C0F20200C0F2A6
:10BF50000201059002A804900DA8069004A80C9573
:10BF6000CDE90A504CF60C00C0F202000990002006
:10BF7000079006A8FEF7F3FA4CF614000121C0F270
:10BF80000200FEF7DEFDFEF740FD4EF62450CEF235
:10BF90000000016821F48021016000F001F8FEDE5C
:10BFA00080B56F4600F003F8FEDE72B6704700DE23
:10BFB000FEDE00F000B800F050B80B4611461A46FD
:10BFC00000F0EDB8D0B502AF1346D2B2042939D390
:10BFD0001404A1F1040E44EA0363012443EA02239A
:10BFE00004EB9E04134414F003040AD08446012C8D
:10BFF0004CF8043B0DD160467146BEF10C0F19D2CE
:10C0000002E0BEF10C0F15D26046BDE8D040FFF74C
:10C01000D4BF022C436006D1083908308446BEF1F3
:10C020000C0F07D2F0E783600C390C308446BEF168
:10C030000C0FE9D31039C0E90033C0E902331030E6
:10C040000329F7D884466046BDE8D040FFF7B5BF66
:10C050000022FFF7B7BFFFF7FBBFF0B503AF2DE935
:10C0600000070F2A61D9434213F0030400EB040CCC
:10C0700016D003460E46357803F8015B63450FD2B0
:10C08000757803F8015B63453EBFB57803F8015B43
:10C09000634505D2F578043603F8015B6345EAD3BE
:10C0A000A2EB040E01EB04082EF0030918F00301C3
:10C0B0000CEB09033CD0B9F1010F52DB4FEAC10A86
:10C0C00028F0030101F10805CAF10002096802F035
:10C0D000180655F8042C21FA0AF102FA06F4214355
:10C0E0004CF8041B9C453CD2296822FA0AF201FA5A
:10C0F00006F422434CF8042B9C453FBF6A6821FAA2
:10C100000AF102FA06F421433CBF4CF8041B9C459B
:10C1100027D2A96822FA0AF2103501FA06F422435E
:10C120004CF8042B9C45D4D31BE00346F2B933E012
:10C13000B9F1010F15DB444621684CF8041B9C45FE
:10C140000FD261684CF8041B9C453EBFA1684CF8B7
:10C15000041B9C4505D2E16810344CF8041B9C4537
:10C16000EAD308EB09010EF00302AAB11A440E78D3
:10C1700003F8016B93420FD24E7803F8016B9342A0
:10C180003EBF8E7803F8016B934205D2CE7804311E
:10C1900003F8016B9342EAD3BDE80007F0BDD0B5C8
:10C1A00002AF0F2A35D9434213F0030E00EB0E0CF9
:10C1B0000FD0034603F8011B63453FBF03F8011B83
:10C1C000634503F8011B634503D203F8011B634574
:10C1D000F0D3A2EB0E0E2EF003020CEB0203012AA9
:10C1E00013DBCAB24FF0013462434CF8042B9C4578
:10C1F0000BD24CF8042B9C453CBF4CF8042B9C45BF
:10C2000003D24CF8042B9C45EFD30EF0030212B975
:10C2100012E0034682B11A4403F8011B93420BD289
:10C2200003F8011B93423CBF03F8011B934203D266
:10C2300003F8011B9342EFD3D0BD7046042108429E
:10C2400003D1EFF3088000F004B8EFF3098000F0A9
:04C2500000B8FEE74D
:10C260002F686F6D652F6E6562656C677261752FE3
:10C270002E636172676F2F6769742F636865636BE4
:10C280006F7574732F656D62617373792D393331F6
:10C29000326463623065643737346232392F6461E7
:10C2A00064643661612F656D62617373792D6E729E
:10C2B000662F7372632F73616164632E7273000063
:10C2C00060C202005E000000E500000038000000CF
:10C2D000606173796E6320666E6020726573756D40
:10C2E000656420616674657220636F6D706C65743F
:10C2F000696F6E0060C202005E000000C5000000B1
:10C300002300000053746174696343656C6C3A3AAE
:10C31000696E697428292063616C6C6564206D7591
:10C320006C7469706C652074696D657304C3020078
:10C33000280000002F686F6D652F6E6562656C6761
:10C340007261752F2E636172676F2F7265676973F3
:10C350007472792F7372632F6769746875622E63C4
:10C360006F6D2D31656363363239396462396563C7
:10C370003832332F7374617469635F63656C6C2D3D
:10C38000312E302E302F7372632F6C69622E7273D0
:10C3900034C302005C0000003F0000000D000000FC
:10C3A0002F6D6E742F42415252412F727573742F4C
:10C3B000454D4245444445442F4E52462F6E7266C9
:10C3C0002D736F66746465766963652F6E72662D72
:10C3D000736F66746465766963652F7372632F6229
:10C3E0006C652F7065726970686572616C2E72730E
:10C3F000A0C30200500000005D0100000100000029
:10C40000606173796E6320666E6020726573756D0E
:10C41000656420616674657220636F6D706C65740D
:10C42000696F6E00A0C302005000000044010000CC
:10C430002900000034CC020051000000BD000000C3
:10C4400001000000C4CA02004D0000006D000000A1
:10C4500009000000CB9A0200100000000400000058
:10C46000B7800200BB8002004D756C7469706C650A
:10C47000207461736B732077616974696E67206FD4
:10C480006E2073616D6520706F7274616C000000C6
:10C4900068C4020025000000C4CA02004D0000006C
:10C4A000940000001A000000696E7465726E616C81
:10C4B000206572726F723A20656E746572656420D1
:10C4C000756E726561636861626C6520636F646537
:10C4D000C4CA02004D000000760000001E000000EB
:10C4E000C4CA02004D0000003F0000000900000027
:10C4F000CB9A02001000000004000000CD9A020058
:10C50000D19A0200C4CA02004D0000005A00000087
:10C510001A00000063616E6E6F7420706F6C6C2087
:10C5200053656C6563742074776963652F686F6DFC
:10C53000652F6E6562656C677261752F2E6361721F
:10C54000676F2F72656769737472792F7372632FC7
:10C550006769746875622E636F6D2D31656363362C
:10C5600032393964623965633832332F66757475D0
:10C570007265732D7574696C2D302E332E32362F03
:10C580007372632F6675747572652F73656C65635E
:10C59000742E72732CC50200680000006600000053
:10C5A00030000000424C457465737431040303038A
:10C5B0000301000249525120416C72656164792087
:10C5C00074616B656E000000B4C5020011000000CC
:10C5D0007372632F6C69622F6465766963652F6D72
:10C5E0006963726F6D6F642E72730000D0C50200B4
:10C5F0001A0000001A00000017000000D0C5020059
:10C600001A0000002000000018000000D0C5020041
:10C610001A00000027000000180000007372632F4A
:10C620006C69622F626C652F7365727665722E720B
:10C630007302010603030F180909424C4574657320
:10C64000743103030F1800001CC60200150000001F
:10C650005900000003000000696E646578206F7562
:10C6600074206F6620626F756E64733A207468651B
:10C67000206C656E20697320206275742074686573
:10C6800020696E64657820697320000058C6020036
:10C690002000000078C60200120000003A000000EE
:10C6A000F4C70200000000009CC602000100000068
:10C6B0009CC602000100000070616E69636B6564D6
:10C6C00020617420272C200005CD0200010000000D
:10C6D000C4C6020003000000699C020000000000C4
:10C6E000010000006B9C02003030303130323033BA
:10C6F0003034303530363037303830393130313110
:10C7000031323133313431353136313731383139F5
:10C7100032303231323232333234323532363237ED
:10C7200032383239333033313332333333343335D3
:10C7300033363337333833393430343134323433B9
:10C74000343434353436343734383439353035319F
:10C750003532353335343535353635373538353985
:10C76000363036313632363336343635363636377D
:10C770003638363937303731373237333734373563
:10C780003736373737383739383038313832383349
:10C79000383438353836383738383839393039312F
:10C7A0003932393339343935393639373938393915
:10C7B00072616E676520737461727420696E64655E
:10C7C0007820206F7574206F662072616E67652017
:10C7D000666F7220736C696365206F66206C656E8E
:10C7E00067746820B0C7020012000000C2C70200D0
:10C7F00022000000CB9A02000400000004000000A8
:10C8000075A7020085A7020017A80200F4C702005E
:10C8100000000000FF6578706C69636974207061C6
:10C820006E69632F686F6D652F6E6562656C6772E8
:10C8300061752F2E636172676F2F726567697374FC
:10C8400072792F7372632F6769746875622E636FD4
:10C850006D2D316563633632393964623965633809
:10C8600032332F6465666D742D302E332E322F7364
:10C8700072632F6C69622E727300000023C802007D
:10C88000560000006F010000050000002F686F6D6A
:10C89000652F6E6562656C677261752F2E636172BC
:10C8A000676F2F72656769737472792F7372632F64
:10C8B0006769746875622E636F6D2D3165636336C9
:10C8C00032393964623965633832332F6465666D95
:10C8D000742D7274742D302E342E302F7372632F9A
:10C8E0006368616E6E656C2E727300008CC8020006
:10C8F0005E000000250000001A0000006465666DFF
:10C9000074206C6F676765722074616B656E20724E
:10C9100065656E7472616E746C790000FCC802000B
:10C920001E0000002F686F6D652F6E6562656C6775
:10C930007261752F2E636172676F2F7265676973FD
:10C940007472792F7372632F6769746875622E63CE
:10C950006F6D2D31656363363239396462396563D1
:10C960003832332F6465666D742D7274742D302ED9
:10C97000342E302F7372632F6C69622E7273000035
:10C9800024C902005A0000003A0000000D00000017
:10C990003FAD020049AD020049AD02004DAD0200BD
:10C9A0002F686F6D652F6E6562656C677261752F9C
:10C9B0002E636172676F2F6769742F636865636B9D
:10C9C0006F7574732F656D62617373792D393331AF
:10C9D000326463623065643737346232392F6461A0
:10C9E00064643661612F656D62617373792D6E7257
:10C9F000662F7372632F74696D655F647269766503
:10CA0000722E7273A0C90200640000001B010000B6
:10CA10000D0000002F686F6D652F6E6562656C6795
:10CA20007261752F2E636172676F2F6769742F6350
:10CA30006865636B6F7574732F656D62617373796D
:10CA40002D39333132646362306564373734623292
:10CA5000392F646164643661612F656D626173733F
:10CA6000792D6E72662F7372632F6770696F7465AC
:10CA70002E72730014CA02005F00000088000000DC
:10CA80001100000014CA02005F00000089000000CD
:10CA9000110000000100706F7274616C732061728C
:10CAA00065206E6F7420757361626C652066726FAD
:10CAB0006D20696E746572727570747396CA020027
:10CAC000260000002F6D6E742F42415252412F728A
:10CAD0007573742F454D4245444445442F4E52468C
